{
    "contractName": "SimpleStorage",
    "abi": [
        {
            "inputs": [
                {
                    "internalType": "uint256",
                    "name": "_favNum",
                    "type": "uint256"
                },
                {
                    "internalType": "string",
                    "name": "_name",
                    "type": "string"
                }
            ],
            "name": "addPerson",
            "outputs": [],
            "stateMutability": "nonpayable",
            "type": "function"
        },
        {
            "inputs": [],
            "name": "favNum",
            "outputs": [
                {
                    "internalType": "uint256",
                    "name": "",
                    "type": "uint256"
                }
            ],
            "stateMutability": "view",
            "type": "function"
        },
        {
            "inputs": [
                {
                    "internalType": "string",
                    "name": "",
                    "type": "string"
                }
            ],
            "name": "nameToFav",
            "outputs": [
                {
                    "internalType": "uint256",
                    "name": "",
                    "type": "uint256"
                }
            ],
            "stateMutability": "view",
            "type": "function"
        },
        {
            "inputs": [
                {
                    "internalType": "uint256",
                    "name": "",
                    "type": "uint256"
                }
            ],
            "name": "person",
            "outputs": [
                {
                    "internalType": "uint256",
                    "name": "favNum",
                    "type": "uint256"
                },
                {
                    "internalType": "string",
                    "name": "name",
                    "type": "string"
                }
            ],
            "stateMutability": "view",
            "type": "function"
        },
        {
            "inputs": [
                {
                    "internalType": "uint256",
                    "name": "_favNum",
                    "type": "uint256"
                }
            ],
            "name": "setFavNum",
            "outputs": [],
            "stateMutability": "nonpayable",
            "type": "function"
        }
    ],
    "bytecode": "608060405234801561001057600080fd5b5061058a806100206000396000f3fe608060405234801561001057600080fd5b50600436106100575760003560e01c8063092a18201461005c5780630eb4f902146100865780633c8df6521461009b57806395679e46146100b2578063bc832d4e146100dd575b600080fd5b61006f61006a366004610251565b6100f0565b60405161007d92919061028e565b60405180910390f35b610099610094366004610251565b600055565b005b6100a460005481565b60405190815260200161007d565b6100a46100c036600461036b565b805160208183018101805160028252928201919093012091525481565b6100996100eb3660046103a8565b6101a8565b6001818154811061010057600080fd5b60009182526020909120600290910201805460018201805491935090610125906103ef565b80601f0160208091040260200160405190810160405280929190818152602001828054610151906103ef565b801561019e5780601f106101735761010080835404028352916020019161019e565b820191906000526020600020905b81548152906001019060200180831161018157829003601f168201915b5050505050905082565b6040805180820190915282815260208101828152600180548082018255600091909152825160029091027fb10e2d527612073b26eecdfd717e6a320cf44b4afac2b0732d9fcbe2b7fa0cf68101918255915190917fb10e2d527612073b26eecdfd717e6a320cf44b4afac2b0732d9fcbe2b7fa0cf701906102299082610478565b5050508160028260405161023d9190610538565b908152604051908190036020019020555050565b60006020828403121561026357600080fd5b5035919050565b60005b8381101561028557818101518382015260200161026d565b50506000910152565b82815260406020820152600082518060408401526102b381606085016020870161026a565b601f01601f1916919091016060019392505050565b634e487b7160e01b600052604160045260246000fd5b600082601f8301126102ef57600080fd5b813567ffffffffffffffff8082111561030a5761030a6102c8565b604051601f8301601f19908116603f01168101908282118183101715610332576103326102c8565b8160405283815286602085880101111561034b57600080fd5b836020870160208301376000602085830101528094505050505092915050565b60006020828403121561037d57600080fd5b813567ffffffffffffffff81111561039457600080fd5b6103a0848285016102de565b949350505050565b600080604083850312156103bb57600080fd5b82359150602083013567ffffffffffffffff8111156103d957600080fd5b6103e5858286016102de565b9150509250929050565b600181811c9082168061040357607f821691505b60208210810361042357634e487b7160e01b600052602260045260246000fd5b50919050565b601f82111561047357600081815260208120601f850160051c810160208610156104505750805b601f850160051c820191505b8181101561046f5782815560010161045c565b5050505b505050565b815167ffffffffffffffff811115610492576104926102c8565b6104a6816104a084546103ef565b84610429565b602080601f8311600181146104db57600084156104c35750858301515b600019600386901b1c1916600185901b17855561046f565b600085815260208120601f198616915b8281101561050a578886015182559484019460019091019084016104eb565b50858210156105285787850151600019600388901b60f8161c191681555b5050505050600190811b01905550565b6000825161054a81846020870161026a565b919091019291505056fea2646970667358221220a0adbf54905ba9601345674b0ba4c6ffa1385e7ca5c396481dfe392be1f1018a64736f6c63430008130033",
    "sourcePath": "d:/Web3-Journey/Lesson_5/contracts/SimpleStorage.sol",
    "compiler": {
        "name": "solc",
        "version": "0.8.19+commit.7dd6d404"
    },
    "functionHashes": {
        "addPerson(uint256,string)": "bc832d4e",
        "favNum()": "3c8df652",
        "nameToFav(string)": "95679e46",
        "person(uint256)": "092a1820",
        "setFavNum(uint256)": "0eb4f902"
    },
    "gasEstimates": {
        "creation": {
            "codeDepositCost": "283600",
            "executionCost": "324",
            "totalCost": "283924"
        },
        "external": {
            "addPerson(uint256,string)": "infinite",
            "favNum()": "2317",
            "nameToFav(string)": "infinite",
            "person(uint256)": "infinite",
            "setFavNum(uint256)": "22312"
        }
    }
}