{
	"contracts/StorageFactory.sol": {
		"StorageFactory": {
			"abi": [
				{
					"inputs": [
						{
							"internalType": "uint256",
							"name": "index",
							"type": "uint256"
						},
						{
							"internalType": "uint256",
							"name": "favNum",
							"type": "uint256"
						},
						{
							"internalType": "string",
							"name": "name",
							"type": "string"
						}
					],
					"name": "addPersonToSimpStore",
					"outputs": [],
					"stateMutability": "nonpayable",
					"type": "function"
				},
				{
					"inputs": [],
					"name": "createSimpleStorage",
					"outputs": [],
					"stateMutability": "nonpayable",
					"type": "function"
				},
				{
					"inputs": [
						{
							"internalType": "uint256",
							"name": "index",
							"type": "uint256"
						},
						{
							"internalType": "string",
							"name": "name",
							"type": "string"
						}
					],
					"name": "getPersons",
					"outputs": [
						{
							"internalType": "uint256",
							"name": "",
							"type": "uint256"
						}
					],
					"stateMutability": "view",
					"type": "function"
				},
				{
					"inputs": [
						{
							"internalType": "uint256",
							"name": "",
							"type": "uint256"
						}
					],
					"name": "simpleStorageArray",
					"outputs": [
						{
							"internalType": "contract SimpleStorage",
							"name": "",
							"type": "address"
						}
					],
					"stateMutability": "view",
					"type": "function"
				}
			],
			"devdoc": {
				"kind": "dev",
				"methods": {},
				"version": 1
			},
			"evm": {
				"assembly": "    /* \"contracts/StorageFactory.sol\":102:821  contract StorageFactory {... */\n  mstore(0x40, 0x80)\n  callvalue\n  dup1\n  iszero\n  tag_1\n  jumpi\n  0x00\n  dup1\n  revert\ntag_1:\n  pop\n  dataSize(sub_0)\n  dup1\n  dataOffset(sub_0)\n  0x00\n  codecopy\n  0x00\n  return\nstop\n\nsub_0: assembly {\n        /* \"contracts/StorageFactory.sol\":102:821  contract StorageFactory {... */\n      mstore(0x40, 0x80)\n      callvalue\n      dup1\n      iszero\n      tag_1\n      jumpi\n      0x00\n      dup1\n      revert\n    tag_1:\n      pop\n      jumpi(tag_2, lt(calldatasize, 0x04))\n      shr(0xe0, calldataload(0x00))\n      dup1\n      0x40d66b3b\n      eq\n      tag_3\n      jumpi\n      dup1\n      0x4dcf94f3\n      eq\n      tag_4\n      jumpi\n      dup1\n      0x64591bf1\n      eq\n      tag_5\n      jumpi\n      dup1\n      0x6768a7e9\n      eq\n      tag_6\n      jumpi\n    tag_2:\n      0x00\n      dup1\n      revert\n        /* \"contracts/StorageFactory.sol\":221:322  function createSimpleStorage() public {... */\n    tag_3:\n      tag_7\n      tag_8\n      jump\t// in\n    tag_7:\n      stop\n        /* \"contracts/StorageFactory.sol\":672:818  function getPersons(uint index, string memory name) public view returns (uint) {... */\n    tag_4:\n      tag_9\n      0x04\n      dup1\n      calldatasize\n      sub\n      dup2\n      add\n      swap1\n      tag_10\n      swap2\n      swap1\n      tag_11\n      jump\t// in\n    tag_10:\n      tag_12\n      jump\t// in\n    tag_9:\n      mload(0x40)\n      tag_13\n      swap2\n      swap1\n      tag_14\n      jump\t// in\n    tag_13:\n      mload(0x40)\n      dup1\n      swap2\n      sub\n      swap1\n      return\n        /* \"contracts/StorageFactory.sol\":133:174  SimpleStorage[] public simpleStorageArray */\n    tag_5:\n      tag_15\n      0x04\n      dup1\n      calldatasize\n      sub\n      dup2\n      add\n      swap1\n      tag_16\n      swap2\n      swap1\n      tag_17\n      jump\t// in\n    tag_16:\n      tag_18\n      jump\t// in\n    tag_15:\n      mload(0x40)\n      tag_19\n      swap2\n      swap1\n      tag_20\n      jump\t// in\n    tag_19:\n      mload(0x40)\n      dup1\n      swap2\n      sub\n      swap1\n      return\n        /* \"contracts/StorageFactory.sol\":441:590  function addPersonToSimpStore(uint index, uint favNum, string memory name) public {... */\n    tag_6:\n      tag_21\n      0x04\n      dup1\n      calldatasize\n      sub\n      dup2\n      add\n      swap1\n      tag_22\n      swap2\n      swap1\n      tag_23\n      jump\t// in\n    tag_22:\n      tag_24\n      jump\t// in\n    tag_21:\n      stop\n        /* \"contracts/StorageFactory.sol\":221:322  function createSimpleStorage() public {... */\n    tag_8:\n        /* \"contracts/StorageFactory.sol\":270:288  simpleStorageArray */\n      0x00\n        /* \"contracts/StorageFactory.sol\":294:313  new SimpleStorage() */\n      mload(0x40)\n      tag_26\n      swap1\n      tag_27\n      jump\t// in\n    tag_26:\n      mload(0x40)\n      dup1\n      swap2\n      sub\n      swap1\n      0x00\n      create\n      dup1\n      iszero\n      dup1\n      iszero\n      tag_28\n      jumpi\n      returndatasize\n      0x00\n      dup1\n      returndatacopy\n      revert(0x00, returndatasize)\n    tag_28:\n      pop\n        /* \"contracts/StorageFactory.sol\":270:314  simpleStorageArray.push(new SimpleStorage()) */\n      swap1\n      dup1\n      0x01\n      dup2\n      sload\n      add\n      dup1\n      dup3\n      sstore\n      dup1\n      swap2\n      pop\n      pop\n      0x01\n      swap1\n      sub\n      swap1\n      0x00\n      mstore\n      keccak256(0x00, 0x20)\n      add\n      0x00\n      swap1\n      swap2\n      swap1\n      swap2\n      swap1\n      swap2\n      0x0100\n      exp\n      dup2\n      sload\n      dup2\n      0xffffffffffffffffffffffffffffffffffffffff\n      mul\n      not\n      and\n      swap1\n      dup4\n      0xffffffffffffffffffffffffffffffffffffffff\n      and\n      mul\n      or\n      swap1\n      sstore\n      pop\n        /* \"contracts/StorageFactory.sol\":221:322  function createSimpleStorage() public {... */\n      jump\t// out\n        /* \"contracts/StorageFactory.sol\":672:818  function getPersons(uint index, string memory name) public view returns (uint) {... */\n    tag_12:\n        /* \"contracts/StorageFactory.sol\":745:749  uint */\n      0x00\n        /* \"contracts/StorageFactory.sol\":769:787  simpleStorageArray */\n      dup1\n        /* \"contracts/StorageFactory.sol\":788:793  index */\n      dup4\n        /* \"contracts/StorageFactory.sol\":769:794  simpleStorageArray[index] */\n      dup2\n      sload\n      dup2\n      lt\n      tag_31\n      jumpi\n      tag_32\n      tag_33\n      jump\t// in\n    tag_32:\n    tag_31:\n      swap1\n      0x00\n      mstore\n      keccak256(0x00, 0x20)\n      add\n      0x00\n      swap1\n      sload\n      swap1\n      0x0100\n      exp\n      swap1\n      div\n      0xffffffffffffffffffffffffffffffffffffffff\n      and\n        /* \"contracts/StorageFactory.sol\":769:804  simpleStorageArray[index].nameToFav */\n      0xffffffffffffffffffffffffffffffffffffffff\n      and\n      0x95679e46\n        /* \"contracts/StorageFactory.sol\":805:809  name */\n      dup4\n        /* \"contracts/StorageFactory.sol\":769:810  simpleStorageArray[index].nameToFav(name) */\n      mload(0x40)\n      dup3\n      0xffffffff\n      and\n      0xe0\n      shl\n      dup2\n      mstore\n      0x04\n      add\n      tag_35\n      swap2\n      swap1\n      tag_36\n      jump\t// in\n    tag_35:\n      0x20\n      mload(0x40)\n      dup1\n      dup4\n      sub\n      dup2\n      dup7\n      gas\n      staticcall\n      iszero\n      dup1\n      iszero\n      tag_38\n      jumpi\n      returndatasize\n      0x00\n      dup1\n      returndatacopy\n      revert(0x00, returndatasize)\n    tag_38:\n      pop\n      pop\n      pop\n      pop\n      mload(0x40)\n      returndatasize\n      not(0x1f)\n      0x1f\n      dup3\n      add\n      and\n      dup3\n      add\n      dup1\n      0x40\n      mstore\n      pop\n      dup2\n      add\n      swap1\n      tag_39\n      swap2\n      swap1\n      tag_40\n      jump\t// in\n    tag_39:\n        /* \"contracts/StorageFactory.sol\":762:810  return simpleStorageArray[index].nameToFav(name) */\n      swap1\n      pop\n        /* \"contracts/StorageFactory.sol\":672:818  function getPersons(uint index, string memory name) public view returns (uint) {... */\n      swap3\n      swap2\n      pop\n      pop\n      jump\t// out\n        /* \"contracts/StorageFactory.sol\":133:174  SimpleStorage[] public simpleStorageArray */\n    tag_18:\n      0x00\n      dup2\n      dup2\n      sload\n      dup2\n      lt\n      tag_41\n      jumpi\n      0x00\n      dup1\n      revert\n    tag_41:\n      swap1\n      0x00\n      mstore\n      keccak256(0x00, 0x20)\n      add\n      0x00\n      swap2\n      pop\n      sload\n      swap1\n      0x0100\n      exp\n      swap1\n      div\n      0xffffffffffffffffffffffffffffffffffffffff\n      and\n      dup2\n      jump\t// out\n        /* \"contracts/StorageFactory.sol\":441:590  function addPersonToSimpStore(uint index, uint favNum, string memory name) public {... */\n    tag_24:\n        /* \"contracts/StorageFactory.sol\":534:552  simpleStorageArray */\n      0x00\n        /* \"contracts/StorageFactory.sol\":553:558  index */\n      dup4\n        /* \"contracts/StorageFactory.sol\":534:559  simpleStorageArray[index] */\n      dup2\n      sload\n      dup2\n      lt\n      tag_44\n      jumpi\n      tag_45\n      tag_33\n      jump\t// in\n    tag_45:\n    tag_44:\n      swap1\n      0x00\n      mstore\n      keccak256(0x00, 0x20)\n      add\n      0x00\n      swap1\n      sload\n      swap1\n      0x0100\n      exp\n      swap1\n      div\n      0xffffffffffffffffffffffffffffffffffffffff\n      and\n        /* \"contracts/StorageFactory.sol\":534:569  simpleStorageArray[index].addPerson */\n      0xffffffffffffffffffffffffffffffffffffffff\n      and\n      0xbc832d4e\n        /* \"contracts/StorageFactory.sol\":570:576  favNum */\n      dup4\n        /* \"contracts/StorageFactory.sol\":577:581  name */\n      dup4\n        /* \"contracts/StorageFactory.sol\":534:582  simpleStorageArray[index].addPerson(favNum,name) */\n      mload(0x40)\n      dup4\n      0xffffffff\n      and\n      0xe0\n      shl\n      dup2\n      mstore\n      0x04\n      add\n      tag_47\n      swap3\n      swap2\n      swap1\n      tag_48\n      jump\t// in\n    tag_47:\n      0x00\n      mload(0x40)\n      dup1\n      dup4\n      sub\n      dup2\n      0x00\n      dup8\n      dup1\n      extcodesize\n      iszero\n      dup1\n      iszero\n      tag_49\n      jumpi\n      0x00\n      dup1\n      revert\n    tag_49:\n      pop\n      gas\n      call\n      iszero\n      dup1\n      iszero\n      tag_51\n      jumpi\n      returndatasize\n      0x00\n      dup1\n      returndatacopy\n      revert(0x00, returndatasize)\n    tag_51:\n      pop\n      pop\n      pop\n      pop\n        /* \"contracts/StorageFactory.sol\":441:590  function addPersonToSimpStore(uint index, uint favNum, string memory name) public {... */\n      pop\n      pop\n      pop\n      jump\t// out\n    tag_27:\n      dataSize(sub_0)\n      dup1\n      dataOffset(sub_0)\n      dup4\n      codecopy\n      add\n      swap1\n      jump\t// out\n        /* \"#utility.yul\":7:82   */\n    tag_52:\n        /* \"#utility.yul\":40:46   */\n      0x00\n        /* \"#utility.yul\":73:75   */\n      0x40\n        /* \"#utility.yul\":67:76   */\n      mload\n        /* \"#utility.yul\":57:76   */\n      swap1\n      pop\n        /* \"#utility.yul\":7:82   */\n      swap1\n      jump\t// out\n        /* \"#utility.yul\":88:205   */\n    tag_53:\n        /* \"#utility.yul\":197:198   */\n      0x00\n        /* \"#utility.yul\":194:195   */\n      dup1\n        /* \"#utility.yul\":187:199   */\n      revert\n        /* \"#utility.yul\":211:328   */\n    tag_54:\n        /* \"#utility.yul\":320:321   */\n      0x00\n        /* \"#utility.yul\":317:318   */\n      dup1\n        /* \"#utility.yul\":310:322   */\n      revert\n        /* \"#utility.yul\":334:411   */\n    tag_55:\n        /* \"#utility.yul\":371:378   */\n      0x00\n        /* \"#utility.yul\":400:405   */\n      dup2\n        /* \"#utility.yul\":389:405   */\n      swap1\n      pop\n        /* \"#utility.yul\":334:411   */\n      swap2\n      swap1\n      pop\n      jump\t// out\n        /* \"#utility.yul\":417:539   */\n    tag_56:\n        /* \"#utility.yul\":490:514   */\n      tag_86\n        /* \"#utility.yul\":508:513   */\n      dup2\n        /* \"#utility.yul\":490:514   */\n      tag_55\n      jump\t// in\n    tag_86:\n        /* \"#utility.yul\":483:488   */\n      dup2\n        /* \"#utility.yul\":480:515   */\n      eq\n        /* \"#utility.yul\":470:533   */\n      tag_87\n      jumpi\n        /* \"#utility.yul\":529:530   */\n      0x00\n        /* \"#utility.yul\":526:527   */\n      dup1\n        /* \"#utility.yul\":519:531   */\n      revert\n        /* \"#utility.yul\":470:533   */\n    tag_87:\n        /* \"#utility.yul\":417:539   */\n      pop\n      jump\t// out\n        /* \"#utility.yul\":545:684   */\n    tag_57:\n        /* \"#utility.yul\":591:596   */\n      0x00\n        /* \"#utility.yul\":629:635   */\n      dup2\n        /* \"#utility.yul\":616:636   */\n      calldataload\n        /* \"#utility.yul\":607:636   */\n      swap1\n      pop\n        /* \"#utility.yul\":645:678   */\n      tag_89\n        /* \"#utility.yul\":672:677   */\n      dup2\n        /* \"#utility.yul\":645:678   */\n      tag_56\n      jump\t// in\n    tag_89:\n        /* \"#utility.yul\":545:684   */\n      swap3\n      swap2\n      pop\n      pop\n      jump\t// out\n        /* \"#utility.yul\":690:807   */\n    tag_58:\n        /* \"#utility.yul\":799:800   */\n      0x00\n        /* \"#utility.yul\":796:797   */\n      dup1\n        /* \"#utility.yul\":789:801   */\n      revert\n        /* \"#utility.yul\":813:930   */\n    tag_59:\n        /* \"#utility.yul\":922:923   */\n      0x00\n        /* \"#utility.yul\":919:920   */\n      dup1\n        /* \"#utility.yul\":912:924   */\n      revert\n        /* \"#utility.yul\":936:1038   */\n    tag_60:\n        /* \"#utility.yul\":977:983   */\n      0x00\n        /* \"#utility.yul\":1028:1030   */\n      0x1f\n        /* \"#utility.yul\":1024:1031   */\n      not\n        /* \"#utility.yul\":1019:1021   */\n      0x1f\n        /* \"#utility.yul\":1012:1017   */\n      dup4\n        /* \"#utility.yul\":1008:1022   */\n      add\n        /* \"#utility.yul\":1004:1032   */\n      and\n        /* \"#utility.yul\":994:1032   */\n      swap1\n      pop\n        /* \"#utility.yul\":936:1038   */\n      swap2\n      swap1\n      pop\n      jump\t// out\n        /* \"#utility.yul\":1044:1224   */\n    tag_61:\n        /* \"#utility.yul\":1092:1169   */\n      0x4e487b7100000000000000000000000000000000000000000000000000000000\n        /* \"#utility.yul\":1089:1090   */\n      0x00\n        /* \"#utility.yul\":1082:1170   */\n      mstore\n        /* \"#utility.yul\":1189:1193   */\n      0x41\n        /* \"#utility.yul\":1186:1187   */\n      0x04\n        /* \"#utility.yul\":1179:1194   */\n      mstore\n        /* \"#utility.yul\":1213:1217   */\n      0x24\n        /* \"#utility.yul\":1210:1211   */\n      0x00\n        /* \"#utility.yul\":1203:1218   */\n      revert\n        /* \"#utility.yul\":1230:1511   */\n    tag_62:\n        /* \"#utility.yul\":1313:1340   */\n      tag_95\n        /* \"#utility.yul\":1335:1339   */\n      dup3\n        /* \"#utility.yul\":1313:1340   */\n      tag_60\n      jump\t// in\n    tag_95:\n        /* \"#utility.yul\":1305:1311   */\n      dup2\n        /* \"#utility.yul\":1301:1341   */\n      add\n        /* \"#utility.yul\":1443:1449   */\n      dup2\n        /* \"#utility.yul\":1431:1441   */\n      dup2\n        /* \"#utility.yul\":1428:1450   */\n      lt\n        /* \"#utility.yul\":1407:1425   */\n      0xffffffffffffffff\n        /* \"#utility.yul\":1395:1405   */\n      dup3\n        /* \"#utility.yul\":1392:1426   */\n      gt\n        /* \"#utility.yul\":1389:1451   */\n      or\n        /* \"#utility.yul\":1386:1474   */\n      iszero\n      tag_96\n      jumpi\n        /* \"#utility.yul\":1454:1472   */\n      tag_97\n      tag_61\n      jump\t// in\n    tag_97:\n        /* \"#utility.yul\":1386:1474   */\n    tag_96:\n        /* \"#utility.yul\":1494:1504   */\n      dup1\n        /* \"#utility.yul\":1490:1492   */\n      0x40\n        /* \"#utility.yul\":1483:1505   */\n      mstore\n        /* \"#utility.yul\":1273:1511   */\n      pop\n        /* \"#utility.yul\":1230:1511   */\n      pop\n      pop\n      jump\t// out\n        /* \"#utility.yul\":1517:1646   */\n    tag_63:\n        /* \"#utility.yul\":1551:1557   */\n      0x00\n        /* \"#utility.yul\":1578:1598   */\n      tag_99\n      tag_52\n      jump\t// in\n    tag_99:\n        /* \"#utility.yul\":1568:1598   */\n      swap1\n      pop\n        /* \"#utility.yul\":1607:1640   */\n      tag_100\n        /* \"#utility.yul\":1635:1639   */\n      dup3\n        /* \"#utility.yul\":1627:1633   */\n      dup3\n        /* \"#utility.yul\":1607:1640   */\n      tag_62\n      jump\t// in\n    tag_100:\n        /* \"#utility.yul\":1517:1646   */\n      swap2\n      swap1\n      pop\n      jump\t// out\n        /* \"#utility.yul\":1652:1960   */\n    tag_64:\n        /* \"#utility.yul\":1714:1718   */\n      0x00\n        /* \"#utility.yul\":1804:1822   */\n      0xffffffffffffffff\n        /* \"#utility.yul\":1796:1802   */\n      dup3\n        /* \"#utility.yul\":1793:1823   */\n      gt\n        /* \"#utility.yul\":1790:1846   */\n      iszero\n      tag_102\n      jumpi\n        /* \"#utility.yul\":1826:1844   */\n      tag_103\n      tag_61\n      jump\t// in\n    tag_103:\n        /* \"#utility.yul\":1790:1846   */\n    tag_102:\n        /* \"#utility.yul\":1864:1893   */\n      tag_104\n        /* \"#utility.yul\":1886:1892   */\n      dup3\n        /* \"#utility.yul\":1864:1893   */\n      tag_60\n      jump\t// in\n    tag_104:\n        /* \"#utility.yul\":1856:1893   */\n      swap1\n      pop\n        /* \"#utility.yul\":1948:1952   */\n      0x20\n        /* \"#utility.yul\":1942:1946   */\n      dup2\n        /* \"#utility.yul\":1938:1953   */\n      add\n        /* \"#utility.yul\":1930:1953   */\n      swap1\n      pop\n        /* \"#utility.yul\":1652:1960   */\n      swap2\n      swap1\n      pop\n      jump\t// out\n        /* \"#utility.yul\":1966:2112   */\n    tag_65:\n        /* \"#utility.yul\":2063:2069   */\n      dup3\n        /* \"#utility.yul\":2058:2061   */\n      dup2\n        /* \"#utility.yul\":2053:2056   */\n      dup4\n        /* \"#utility.yul\":2040:2070   */\n      calldatacopy\n        /* \"#utility.yul\":2104:2105   */\n      0x00\n        /* \"#utility.yul\":2095:2101   */\n      dup4\n        /* \"#utility.yul\":2090:2093   */\n      dup4\n        /* \"#utility.yul\":2086:2102   */\n      add\n        /* \"#utility.yul\":2079:2106   */\n      mstore\n        /* \"#utility.yul\":1966:2112   */\n      pop\n      pop\n      pop\n      jump\t// out\n        /* \"#utility.yul\":2118:2543   */\n    tag_66:\n        /* \"#utility.yul\":2196:2201   */\n      0x00\n        /* \"#utility.yul\":2221:2287   */\n      tag_107\n        /* \"#utility.yul\":2237:2286   */\n      tag_108\n        /* \"#utility.yul\":2279:2285   */\n      dup5\n        /* \"#utility.yul\":2237:2286   */\n      tag_64\n      jump\t// in\n    tag_108:\n        /* \"#utility.yul\":2221:2287   */\n      tag_63\n      jump\t// in\n    tag_107:\n        /* \"#utility.yul\":2212:2287   */\n      swap1\n      pop\n        /* \"#utility.yul\":2310:2316   */\n      dup3\n        /* \"#utility.yul\":2303:2308   */\n      dup2\n        /* \"#utility.yul\":2296:2317   */\n      mstore\n        /* \"#utility.yul\":2348:2352   */\n      0x20\n        /* \"#utility.yul\":2341:2346   */\n      dup2\n        /* \"#utility.yul\":2337:2353   */\n      add\n        /* \"#utility.yul\":2386:2389   */\n      dup5\n        /* \"#utility.yul\":2377:2383   */\n      dup5\n        /* \"#utility.yul\":2372:2375   */\n      dup5\n        /* \"#utility.yul\":2368:2384   */\n      add\n        /* \"#utility.yul\":2365:2390   */\n      gt\n        /* \"#utility.yul\":2362:2474   */\n      iszero\n      tag_109\n      jumpi\n        /* \"#utility.yul\":2393:2472   */\n      tag_110\n      tag_59\n      jump\t// in\n    tag_110:\n        /* \"#utility.yul\":2362:2474   */\n    tag_109:\n        /* \"#utility.yul\":2483:2537   */\n      tag_111\n        /* \"#utility.yul\":2530:2536   */\n      dup5\n        /* \"#utility.yul\":2525:2528   */\n      dup3\n        /* \"#utility.yul\":2520:2523   */\n      dup6\n        /* \"#utility.yul\":2483:2537   */\n      tag_65\n      jump\t// in\n    tag_111:\n        /* \"#utility.yul\":2202:2543   */\n      pop\n        /* \"#utility.yul\":2118:2543   */\n      swap4\n      swap3\n      pop\n      pop\n      pop\n      jump\t// out\n        /* \"#utility.yul\":2563:2903   */\n    tag_67:\n        /* \"#utility.yul\":2619:2624   */\n      0x00\n        /* \"#utility.yul\":2668:2671   */\n      dup3\n        /* \"#utility.yul\":2661:2665   */\n      0x1f\n        /* \"#utility.yul\":2653:2659   */\n      dup4\n        /* \"#utility.yul\":2649:2666   */\n      add\n        /* \"#utility.yul\":2645:2672   */\n      slt\n        /* \"#utility.yul\":2635:2757   */\n      tag_113\n      jumpi\n        /* \"#utility.yul\":2676:2755   */\n      tag_114\n      tag_58\n      jump\t// in\n    tag_114:\n        /* \"#utility.yul\":2635:2757   */\n    tag_113:\n        /* \"#utility.yul\":2793:2799   */\n      dup2\n        /* \"#utility.yul\":2780:2800   */\n      calldataload\n        /* \"#utility.yul\":2818:2897   */\n      tag_115\n        /* \"#utility.yul\":2893:2896   */\n      dup5\n        /* \"#utility.yul\":2885:2891   */\n      dup3\n        /* \"#utility.yul\":2878:2882   */\n      0x20\n        /* \"#utility.yul\":2870:2876   */\n      dup7\n        /* \"#utility.yul\":2866:2883   */\n      add\n        /* \"#utility.yul\":2818:2897   */\n      tag_66\n      jump\t// in\n    tag_115:\n        /* \"#utility.yul\":2809:2897   */\n      swap2\n      pop\n        /* \"#utility.yul\":2625:2903   */\n      pop\n        /* \"#utility.yul\":2563:2903   */\n      swap3\n      swap2\n      pop\n      pop\n      jump\t// out\n        /* \"#utility.yul\":2909:3563   */\n    tag_11:\n        /* \"#utility.yul\":2987:2993   */\n      0x00\n        /* \"#utility.yul\":2995:3001   */\n      dup1\n        /* \"#utility.yul\":3044:3046   */\n      0x40\n        /* \"#utility.yul\":3032:3041   */\n      dup4\n        /* \"#utility.yul\":3023:3030   */\n      dup6\n        /* \"#utility.yul\":3019:3042   */\n      sub\n        /* \"#utility.yul\":3015:3047   */\n      slt\n        /* \"#utility.yul\":3012:3131   */\n      iszero\n      tag_117\n      jumpi\n        /* \"#utility.yul\":3050:3129   */\n      tag_118\n      tag_53\n      jump\t// in\n    tag_118:\n        /* \"#utility.yul\":3012:3131   */\n    tag_117:\n        /* \"#utility.yul\":3170:3171   */\n      0x00\n        /* \"#utility.yul\":3195:3248   */\n      tag_119\n        /* \"#utility.yul\":3240:3247   */\n      dup6\n        /* \"#utility.yul\":3231:3237   */\n      dup3\n        /* \"#utility.yul\":3220:3229   */\n      dup7\n        /* \"#utility.yul\":3216:3238   */\n      add\n        /* \"#utility.yul\":3195:3248   */\n      tag_57\n      jump\t// in\n    tag_119:\n        /* \"#utility.yul\":3185:3248   */\n      swap3\n      pop\n        /* \"#utility.yul\":3141:3258   */\n      pop\n        /* \"#utility.yul\":3325:3327   */\n      0x20\n        /* \"#utility.yul\":3314:3323   */\n      dup4\n        /* \"#utility.yul\":3310:3328   */\n      add\n        /* \"#utility.yul\":3297:3329   */\n      calldataload\n        /* \"#utility.yul\":3356:3374   */\n      0xffffffffffffffff\n        /* \"#utility.yul\":3348:3354   */\n      dup2\n        /* \"#utility.yul\":3345:3375   */\n      gt\n        /* \"#utility.yul\":3342:3459   */\n      iszero\n      tag_120\n      jumpi\n        /* \"#utility.yul\":3378:3457   */\n      tag_121\n      tag_54\n      jump\t// in\n    tag_121:\n        /* \"#utility.yul\":3342:3459   */\n    tag_120:\n        /* \"#utility.yul\":3483:3546   */\n      tag_122\n        /* \"#utility.yul\":3538:3545   */\n      dup6\n        /* \"#utility.yul\":3529:3535   */\n      dup3\n        /* \"#utility.yul\":3518:3527   */\n      dup7\n        /* \"#utility.yul\":3514:3536   */\n      add\n        /* \"#utility.yul\":3483:3546   */\n      tag_67\n      jump\t// in\n    tag_122:\n        /* \"#utility.yul\":3473:3546   */\n      swap2\n      pop\n        /* \"#utility.yul\":3268:3556   */\n      pop\n        /* \"#utility.yul\":2909:3563   */\n      swap3\n      pop\n      swap3\n      swap1\n      pop\n      jump\t// out\n        /* \"#utility.yul\":3569:3687   */\n    tag_68:\n        /* \"#utility.yul\":3656:3680   */\n      tag_124\n        /* \"#utility.yul\":3674:3679   */\n      dup2\n        /* \"#utility.yul\":3656:3680   */\n      tag_55\n      jump\t// in\n    tag_124:\n        /* \"#utility.yul\":3651:3654   */\n      dup3\n        /* \"#utility.yul\":3644:3681   */\n      mstore\n        /* \"#utility.yul\":3569:3687   */\n      pop\n      pop\n      jump\t// out\n        /* \"#utility.yul\":3693:3915   */\n    tag_14:\n        /* \"#utility.yul\":3786:3790   */\n      0x00\n        /* \"#utility.yul\":3824:3826   */\n      0x20\n        /* \"#utility.yul\":3813:3822   */\n      dup3\n        /* \"#utility.yul\":3809:3827   */\n      add\n        /* \"#utility.yul\":3801:3827   */\n      swap1\n      pop\n        /* \"#utility.yul\":3837:3908   */\n      tag_126\n        /* \"#utility.yul\":3905:3906   */\n      0x00\n        /* \"#utility.yul\":3894:3903   */\n      dup4\n        /* \"#utility.yul\":3890:3907   */\n      add\n        /* \"#utility.yul\":3881:3887   */\n      dup5\n        /* \"#utility.yul\":3837:3908   */\n      tag_68\n      jump\t// in\n    tag_126:\n        /* \"#utility.yul\":3693:3915   */\n      swap3\n      swap2\n      pop\n      pop\n      jump\t// out\n        /* \"#utility.yul\":3921:4250   */\n    tag_17:\n        /* \"#utility.yul\":3980:3986   */\n      0x00\n        /* \"#utility.yul\":4029:4031   */\n      0x20\n        /* \"#utility.yul\":4017:4026   */\n      dup3\n        /* \"#utility.yul\":4008:4015   */\n      dup5\n        /* \"#utility.yul\":4004:4027   */\n      sub\n        /* \"#utility.yul\":4000:4032   */\n      slt\n        /* \"#utility.yul\":3997:4116   */\n      iszero\n      tag_128\n      jumpi\n        /* \"#utility.yul\":4035:4114   */\n      tag_129\n      tag_53\n      jump\t// in\n    tag_129:\n        /* \"#utility.yul\":3997:4116   */\n    tag_128:\n        /* \"#utility.yul\":4155:4156   */\n      0x00\n        /* \"#utility.yul\":4180:4233   */\n      tag_130\n        /* \"#utility.yul\":4225:4232   */\n      dup5\n        /* \"#utility.yul\":4216:4222   */\n      dup3\n        /* \"#utility.yul\":4205:4214   */\n      dup6\n        /* \"#utility.yul\":4201:4223   */\n      add\n        /* \"#utility.yul\":4180:4233   */\n      tag_57\n      jump\t// in\n    tag_130:\n        /* \"#utility.yul\":4170:4233   */\n      swap2\n      pop\n        /* \"#utility.yul\":4126:4243   */\n      pop\n        /* \"#utility.yul\":3921:4250   */\n      swap3\n      swap2\n      pop\n      pop\n      jump\t// out\n        /* \"#utility.yul\":4256:4382   */\n    tag_69:\n        /* \"#utility.yul\":4293:4300   */\n      0x00\n        /* \"#utility.yul\":4333:4375   */\n      0xffffffffffffffffffffffffffffffffffffffff\n        /* \"#utility.yul\":4326:4331   */\n      dup3\n        /* \"#utility.yul\":4322:4376   */\n      and\n        /* \"#utility.yul\":4311:4376   */\n      swap1\n      pop\n        /* \"#utility.yul\":4256:4382   */\n      swap2\n      swap1\n      pop\n      jump\t// out\n        /* \"#utility.yul\":4388:4448   */\n    tag_70:\n        /* \"#utility.yul\":4416:4419   */\n      0x00\n        /* \"#utility.yul\":4437:4442   */\n      dup2\n        /* \"#utility.yul\":4430:4442   */\n      swap1\n      pop\n        /* \"#utility.yul\":4388:4448   */\n      swap2\n      swap1\n      pop\n      jump\t// out\n        /* \"#utility.yul\":4454:4596   */\n    tag_71:\n        /* \"#utility.yul\":4504:4513   */\n      0x00\n        /* \"#utility.yul\":4537:4590   */\n      tag_134\n        /* \"#utility.yul\":4555:4589   */\n      tag_135\n        /* \"#utility.yul\":4564:4588   */\n      tag_136\n        /* \"#utility.yul\":4582:4587   */\n      dup5\n        /* \"#utility.yul\":4564:4588   */\n      tag_69\n      jump\t// in\n    tag_136:\n        /* \"#utility.yul\":4555:4589   */\n      tag_70\n      jump\t// in\n    tag_135:\n        /* \"#utility.yul\":4537:4590   */\n      tag_69\n      jump\t// in\n    tag_134:\n        /* \"#utility.yul\":4524:4590   */\n      swap1\n      pop\n        /* \"#utility.yul\":4454:4596   */\n      swap2\n      swap1\n      pop\n      jump\t// out\n        /* \"#utility.yul\":4602:4728   */\n    tag_72:\n        /* \"#utility.yul\":4652:4661   */\n      0x00\n        /* \"#utility.yul\":4685:4722   */\n      tag_138\n        /* \"#utility.yul\":4716:4721   */\n      dup3\n        /* \"#utility.yul\":4685:4722   */\n      tag_71\n      jump\t// in\n    tag_138:\n        /* \"#utility.yul\":4672:4722   */\n      swap1\n      pop\n        /* \"#utility.yul\":4602:4728   */\n      swap2\n      swap1\n      pop\n      jump\t// out\n        /* \"#utility.yul\":4734:4880   */\n    tag_73:\n        /* \"#utility.yul\":4804:4813   */\n      0x00\n        /* \"#utility.yul\":4837:4874   */\n      tag_140\n        /* \"#utility.yul\":4868:4873   */\n      dup3\n        /* \"#utility.yul\":4837:4874   */\n      tag_72\n      jump\t// in\n    tag_140:\n        /* \"#utility.yul\":4824:4874   */\n      swap1\n      pop\n        /* \"#utility.yul\":4734:4880   */\n      swap2\n      swap1\n      pop\n      jump\t// out\n        /* \"#utility.yul\":4886:5057   */\n    tag_74:\n        /* \"#utility.yul\":4993:5050   */\n      tag_142\n        /* \"#utility.yul\":5044:5049   */\n      dup2\n        /* \"#utility.yul\":4993:5050   */\n      tag_73\n      jump\t// in\n    tag_142:\n        /* \"#utility.yul\":4988:4991   */\n      dup3\n        /* \"#utility.yul\":4981:5051   */\n      mstore\n        /* \"#utility.yul\":4886:5057   */\n      pop\n      pop\n      jump\t// out\n        /* \"#utility.yul\":5063:5325   */\n    tag_20:\n        /* \"#utility.yul\":5176:5180   */\n      0x00\n        /* \"#utility.yul\":5214:5216   */\n      0x20\n        /* \"#utility.yul\":5203:5212   */\n      dup3\n        /* \"#utility.yul\":5199:5217   */\n      add\n        /* \"#utility.yul\":5191:5217   */\n      swap1\n      pop\n        /* \"#utility.yul\":5227:5318   */\n      tag_144\n        /* \"#utility.yul\":5315:5316   */\n      0x00\n        /* \"#utility.yul\":5304:5313   */\n      dup4\n        /* \"#utility.yul\":5300:5317   */\n      add\n        /* \"#utility.yul\":5291:5297   */\n      dup5\n        /* \"#utility.yul\":5227:5318   */\n      tag_74\n      jump\t// in\n    tag_144:\n        /* \"#utility.yul\":5063:5325   */\n      swap3\n      swap2\n      pop\n      pop\n      jump\t// out\n        /* \"#utility.yul\":5331:6130   */\n    tag_23:\n        /* \"#utility.yul\":5418:5424   */\n      0x00\n        /* \"#utility.yul\":5426:5432   */\n      dup1\n        /* \"#utility.yul\":5434:5440   */\n      0x00\n        /* \"#utility.yul\":5483:5485   */\n      0x60\n        /* \"#utility.yul\":5471:5480   */\n      dup5\n        /* \"#utility.yul\":5462:5469   */\n      dup7\n        /* \"#utility.yul\":5458:5481   */\n      sub\n        /* \"#utility.yul\":5454:5486   */\n      slt\n        /* \"#utility.yul\":5451:5570   */\n      iszero\n      tag_146\n      jumpi\n        /* \"#utility.yul\":5489:5568   */\n      tag_147\n      tag_53\n      jump\t// in\n    tag_147:\n        /* \"#utility.yul\":5451:5570   */\n    tag_146:\n        /* \"#utility.yul\":5609:5610   */\n      0x00\n        /* \"#utility.yul\":5634:5687   */\n      tag_148\n        /* \"#utility.yul\":5679:5686   */\n      dup7\n        /* \"#utility.yul\":5670:5676   */\n      dup3\n        /* \"#utility.yul\":5659:5668   */\n      dup8\n        /* \"#utility.yul\":5655:5677   */\n      add\n        /* \"#utility.yul\":5634:5687   */\n      tag_57\n      jump\t// in\n    tag_148:\n        /* \"#utility.yul\":5624:5687   */\n      swap4\n      pop\n        /* \"#utility.yul\":5580:5697   */\n      pop\n        /* \"#utility.yul\":5736:5738   */\n      0x20\n        /* \"#utility.yul\":5762:5815   */\n      tag_149\n        /* \"#utility.yul\":5807:5814   */\n      dup7\n        /* \"#utility.yul\":5798:5804   */\n      dup3\n        /* \"#utility.yul\":5787:5796   */\n      dup8\n        /* \"#utility.yul\":5783:5805   */\n      add\n        /* \"#utility.yul\":5762:5815   */\n      tag_57\n      jump\t// in\n    tag_149:\n        /* \"#utility.yul\":5752:5815   */\n      swap3\n      pop\n        /* \"#utility.yul\":5707:5825   */\n      pop\n        /* \"#utility.yul\":5892:5894   */\n      0x40\n        /* \"#utility.yul\":5881:5890   */\n      dup5\n        /* \"#utility.yul\":5877:5895   */\n      add\n        /* \"#utility.yul\":5864:5896   */\n      calldataload\n        /* \"#utility.yul\":5923:5941   */\n      0xffffffffffffffff\n        /* \"#utility.yul\":5915:5921   */\n      dup2\n        /* \"#utility.yul\":5912:5942   */\n      gt\n        /* \"#utility.yul\":5909:6026   */\n      iszero\n      tag_150\n      jumpi\n        /* \"#utility.yul\":5945:6024   */\n      tag_151\n      tag_54\n      jump\t// in\n    tag_151:\n        /* \"#utility.yul\":5909:6026   */\n    tag_150:\n        /* \"#utility.yul\":6050:6113   */\n      tag_152\n        /* \"#utility.yul\":6105:6112   */\n      dup7\n        /* \"#utility.yul\":6096:6102   */\n      dup3\n        /* \"#utility.yul\":6085:6094   */\n      dup8\n        /* \"#utility.yul\":6081:6103   */\n      add\n        /* \"#utility.yul\":6050:6113   */\n      tag_67\n      jump\t// in\n    tag_152:\n        /* \"#utility.yul\":6040:6113   */\n      swap2\n      pop\n        /* \"#utility.yul\":5835:6123   */\n      pop\n        /* \"#utility.yul\":5331:6130   */\n      swap3\n      pop\n      swap3\n      pop\n      swap3\n      jump\t// out\n        /* \"#utility.yul\":6136:6316   */\n    tag_33:\n        /* \"#utility.yul\":6184:6261   */\n      0x4e487b7100000000000000000000000000000000000000000000000000000000\n        /* \"#utility.yul\":6181:6182   */\n      0x00\n        /* \"#utility.yul\":6174:6262   */\n      mstore\n        /* \"#utility.yul\":6281:6285   */\n      0x32\n        /* \"#utility.yul\":6278:6279   */\n      0x04\n        /* \"#utility.yul\":6271:6286   */\n      mstore\n        /* \"#utility.yul\":6305:6309   */\n      0x24\n        /* \"#utility.yul\":6302:6303   */\n      0x00\n        /* \"#utility.yul\":6295:6310   */\n      revert\n        /* \"#utility.yul\":6322:6421   */\n    tag_75:\n        /* \"#utility.yul\":6374:6380   */\n      0x00\n        /* \"#utility.yul\":6408:6413   */\n      dup2\n        /* \"#utility.yul\":6402:6414   */\n      mload\n        /* \"#utility.yul\":6392:6414   */\n      swap1\n      pop\n        /* \"#utility.yul\":6322:6421   */\n      swap2\n      swap1\n      pop\n      jump\t// out\n        /* \"#utility.yul\":6427:6596   */\n    tag_76:\n        /* \"#utility.yul\":6511:6522   */\n      0x00\n        /* \"#utility.yul\":6545:6551   */\n      dup3\n        /* \"#utility.yul\":6540:6543   */\n      dup3\n        /* \"#utility.yul\":6533:6552   */\n      mstore\n        /* \"#utility.yul\":6585:6589   */\n      0x20\n        /* \"#utility.yul\":6580:6583   */\n      dup3\n        /* \"#utility.yul\":6576:6590   */\n      add\n        /* \"#utility.yul\":6561:6590   */\n      swap1\n      pop\n        /* \"#utility.yul\":6427:6596   */\n      swap3\n      swap2\n      pop\n      pop\n      jump\t// out\n        /* \"#utility.yul\":6602:6848   */\n    tag_77:\n        /* \"#utility.yul\":6683:6684   */\n      0x00\n        /* \"#utility.yul\":6693:6806   */\n    tag_157:\n        /* \"#utility.yul\":6707:6713   */\n      dup4\n        /* \"#utility.yul\":6704:6705   */\n      dup2\n        /* \"#utility.yul\":6701:6714   */\n      lt\n        /* \"#utility.yul\":6693:6806   */\n      iszero\n      tag_159\n      jumpi\n        /* \"#utility.yul\":6792:6793   */\n      dup1\n        /* \"#utility.yul\":6787:6790   */\n      dup3\n        /* \"#utility.yul\":6783:6794   */\n      add\n        /* \"#utility.yul\":6777:6795   */\n      mload\n        /* \"#utility.yul\":6773:6774   */\n      dup2\n        /* \"#utility.yul\":6768:6771   */\n      dup5\n        /* \"#utility.yul\":6764:6775   */\n      add\n        /* \"#utility.yul\":6757:6796   */\n      mstore\n        /* \"#utility.yul\":6729:6731   */\n      0x20\n        /* \"#utility.yul\":6726:6727   */\n      dup2\n        /* \"#utility.yul\":6722:6732   */\n      add\n        /* \"#utility.yul\":6717:6732   */\n      swap1\n      pop\n        /* \"#utility.yul\":6693:6806   */\n      jump(tag_157)\n    tag_159:\n        /* \"#utility.yul\":6840:6841   */\n      0x00\n        /* \"#utility.yul\":6831:6837   */\n      dup5\n        /* \"#utility.yul\":6826:6829   */\n      dup5\n        /* \"#utility.yul\":6822:6838   */\n      add\n        /* \"#utility.yul\":6815:6842   */\n      mstore\n        /* \"#utility.yul\":6664:6848   */\n      pop\n        /* \"#utility.yul\":6602:6848   */\n      pop\n      pop\n      pop\n      jump\t// out\n        /* \"#utility.yul\":6854:7231   */\n    tag_78:\n        /* \"#utility.yul\":6942:6945   */\n      0x00\n        /* \"#utility.yul\":6970:7009   */\n      tag_161\n        /* \"#utility.yul\":7003:7008   */\n      dup3\n        /* \"#utility.yul\":6970:7009   */\n      tag_75\n      jump\t// in\n    tag_161:\n        /* \"#utility.yul\":7025:7096   */\n      tag_162\n        /* \"#utility.yul\":7089:7095   */\n      dup2\n        /* \"#utility.yul\":7084:7087   */\n      dup6\n        /* \"#utility.yul\":7025:7096   */\n      tag_76\n      jump\t// in\n    tag_162:\n        /* \"#utility.yul\":7018:7096   */\n      swap4\n      pop\n        /* \"#utility.yul\":7105:7170   */\n      tag_163\n        /* \"#utility.yul\":7163:7169   */\n      dup2\n        /* \"#utility.yul\":7158:7161   */\n      dup6\n        /* \"#utility.yul\":7151:7155   */\n      0x20\n        /* \"#utility.yul\":7144:7149   */\n      dup7\n        /* \"#utility.yul\":7140:7156   */\n      add\n        /* \"#utility.yul\":7105:7170   */\n      tag_77\n      jump\t// in\n    tag_163:\n        /* \"#utility.yul\":7195:7224   */\n      tag_164\n        /* \"#utility.yul\":7217:7223   */\n      dup2\n        /* \"#utility.yul\":7195:7224   */\n      tag_60\n      jump\t// in\n    tag_164:\n        /* \"#utility.yul\":7190:7193   */\n      dup5\n        /* \"#utility.yul\":7186:7225   */\n      add\n        /* \"#utility.yul\":7179:7225   */\n      swap2\n      pop\n        /* \"#utility.yul\":6946:7231   */\n      pop\n        /* \"#utility.yul\":6854:7231   */\n      swap3\n      swap2\n      pop\n      pop\n      jump\t// out\n        /* \"#utility.yul\":7237:7550   */\n    tag_36:\n        /* \"#utility.yul\":7350:7354   */\n      0x00\n        /* \"#utility.yul\":7388:7390   */\n      0x20\n        /* \"#utility.yul\":7377:7386   */\n      dup3\n        /* \"#utility.yul\":7373:7391   */\n      add\n        /* \"#utility.yul\":7365:7391   */\n      swap1\n      pop\n        /* \"#utility.yul\":7437:7446   */\n      dup2\n        /* \"#utility.yul\":7431:7435   */\n      dup2\n        /* \"#utility.yul\":7427:7447   */\n      sub\n        /* \"#utility.yul\":7423:7424   */\n      0x00\n        /* \"#utility.yul\":7412:7421   */\n      dup4\n        /* \"#utility.yul\":7408:7425   */\n      add\n        /* \"#utility.yul\":7401:7448   */\n      mstore\n        /* \"#utility.yul\":7465:7543   */\n      tag_166\n        /* \"#utility.yul\":7538:7542   */\n      dup2\n        /* \"#utility.yul\":7529:7535   */\n      dup5\n        /* \"#utility.yul\":7465:7543   */\n      tag_78\n      jump\t// in\n    tag_166:\n        /* \"#utility.yul\":7457:7543   */\n      swap1\n      pop\n        /* \"#utility.yul\":7237:7550   */\n      swap3\n      swap2\n      pop\n      pop\n      jump\t// out\n        /* \"#utility.yul\":7556:7699   */\n    tag_79:\n        /* \"#utility.yul\":7613:7618   */\n      0x00\n        /* \"#utility.yul\":7644:7650   */\n      dup2\n        /* \"#utility.yul\":7638:7651   */\n      mload\n        /* \"#utility.yul\":7629:7651   */\n      swap1\n      pop\n        /* \"#utility.yul\":7660:7693   */\n      tag_168\n        /* \"#utility.yul\":7687:7692   */\n      dup2\n        /* \"#utility.yul\":7660:7693   */\n      tag_56\n      jump\t// in\n    tag_168:\n        /* \"#utility.yul\":7556:7699   */\n      swap3\n      swap2\n      pop\n      pop\n      jump\t// out\n        /* \"#utility.yul\":7705:8056   */\n    tag_40:\n        /* \"#utility.yul\":7775:7781   */\n      0x00\n        /* \"#utility.yul\":7824:7826   */\n      0x20\n        /* \"#utility.yul\":7812:7821   */\n      dup3\n        /* \"#utility.yul\":7803:7810   */\n      dup5\n        /* \"#utility.yul\":7799:7822   */\n      sub\n        /* \"#utility.yul\":7795:7827   */\n      slt\n        /* \"#utility.yul\":7792:7911   */\n      iszero\n      tag_170\n      jumpi\n        /* \"#utility.yul\":7830:7909   */\n      tag_171\n      tag_53\n      jump\t// in\n    tag_171:\n        /* \"#utility.yul\":7792:7911   */\n    tag_170:\n        /* \"#utility.yul\":7950:7951   */\n      0x00\n        /* \"#utility.yul\":7975:8039   */\n      tag_172\n        /* \"#utility.yul\":8031:8038   */\n      dup5\n        /* \"#utility.yul\":8022:8028   */\n      dup3\n        /* \"#utility.yul\":8011:8020   */\n      dup6\n        /* \"#utility.yul\":8007:8029   */\n      add\n        /* \"#utility.yul\":7975:8039   */\n      tag_79\n      jump\t// in\n    tag_172:\n        /* \"#utility.yul\":7965:8039   */\n      swap2\n      pop\n        /* \"#utility.yul\":7921:8049   */\n      pop\n        /* \"#utility.yul\":7705:8056   */\n      swap3\n      swap2\n      pop\n      pop\n      jump\t// out\n        /* \"#utility.yul\":8062:8485   */\n    tag_48:\n        /* \"#utility.yul\":8203:8207   */\n      0x00\n        /* \"#utility.yul\":8241:8243   */\n      0x40\n        /* \"#utility.yul\":8230:8239   */\n      dup3\n        /* \"#utility.yul\":8226:8244   */\n      add\n        /* \"#utility.yul\":8218:8244   */\n      swap1\n      pop\n        /* \"#utility.yul\":8254:8325   */\n      tag_174\n        /* \"#utility.yul\":8322:8323   */\n      0x00\n        /* \"#utility.yul\":8311:8320   */\n      dup4\n        /* \"#utility.yul\":8307:8324   */\n      add\n        /* \"#utility.yul\":8298:8304   */\n      dup6\n        /* \"#utility.yul\":8254:8325   */\n      tag_68\n      jump\t// in\n    tag_174:\n        /* \"#utility.yul\":8372:8381   */\n      dup2\n        /* \"#utility.yul\":8366:8370   */\n      dup2\n        /* \"#utility.yul\":8362:8382   */\n      sub\n        /* \"#utility.yul\":8357:8359   */\n      0x20\n        /* \"#utility.yul\":8346:8355   */\n      dup4\n        /* \"#utility.yul\":8342:8360   */\n      add\n        /* \"#utility.yul\":8335:8383   */\n      mstore\n        /* \"#utility.yul\":8400:8478   */\n      tag_175\n        /* \"#utility.yul\":8473:8477   */\n      dup2\n        /* \"#utility.yul\":8464:8470   */\n      dup5\n        /* \"#utility.yul\":8400:8478   */\n      tag_78\n      jump\t// in\n    tag_175:\n        /* \"#utility.yul\":8392:8478   */\n      swap1\n      pop\n        /* \"#utility.yul\":8062:8485   */\n      swap4\n      swap3\n      pop\n      pop\n      pop\n      jump\t// out\n    stop\n\n    sub_0: assembly {\n            /* \"contracts/SimpleStorage.sol\":61:743  contract SimpleStorage{... */\n          mstore(0x40, 0x80)\n          callvalue\n          dup1\n          iszero\n          tag_1\n          jumpi\n          0x00\n          dup1\n          revert\n        tag_1:\n          pop\n          dataSize(sub_0)\n          dup1\n          dataOffset(sub_0)\n          0x00\n          codecopy\n          0x00\n          return\n        stop\n\n        sub_0: assembly {\n                /* \"contracts/SimpleStorage.sol\":61:743  contract SimpleStorage{... */\n              mstore(0x40, 0x80)\n              callvalue\n              dup1\n              iszero\n              tag_1\n              jumpi\n              0x00\n              dup1\n              revert\n            tag_1:\n              pop\n              jumpi(tag_2, lt(calldatasize, 0x04))\n              shr(0xe0, calldataload(0x00))\n              dup1\n              0x092a1820\n              eq\n              tag_3\n              jumpi\n              dup1\n              0x95679e46\n              eq\n              tag_4\n              jumpi\n              dup1\n              0xbc832d4e\n              eq\n              tag_5\n              jumpi\n            tag_2:\n              0x00\n              dup1\n              revert\n                /* \"contracts/SimpleStorage.sol\":298:326  PersonFavNum[] public person */\n            tag_3:\n              tag_6\n              0x04\n              dup1\n              calldatasize\n              sub\n              dup2\n              add\n              swap1\n              tag_7\n              swap2\n              swap1\n              tag_8\n              jump\t// in\n            tag_7:\n              tag_9\n              jump\t// in\n            tag_6:\n              mload(0x40)\n              tag_10\n              swap3\n              swap2\n              swap1\n              tag_11\n              jump\t// in\n            tag_10:\n              mload(0x40)\n              dup1\n              swap2\n              sub\n              swap1\n              return\n                /* \"contracts/SimpleStorage.sol\":366:407  mapping (string => uint) public nameToFav */\n            tag_4:\n              tag_12\n              0x04\n              dup1\n              calldatasize\n              sub\n              dup2\n              add\n              swap1\n              tag_13\n              swap2\n              swap1\n              tag_14\n              jump\t// in\n            tag_13:\n              tag_15\n              jump\t// in\n            tag_12:\n              mload(0x40)\n              tag_16\n              swap2\n              swap1\n              tag_17\n              jump\t// in\n            tag_16:\n              mload(0x40)\n              dup1\n              swap2\n              sub\n              swap1\n              return\n                /* \"contracts/SimpleStorage.sol\":569:740  function addPerson(uint _favNum, string memory _name) public {... */\n            tag_5:\n              tag_18\n              0x04\n              dup1\n              calldatasize\n              sub\n              dup2\n              add\n              swap1\n              tag_19\n              swap2\n              swap1\n              tag_20\n              jump\t// in\n            tag_19:\n              tag_21\n              jump\t// in\n            tag_18:\n              stop\n                /* \"contracts/SimpleStorage.sol\":298:326  PersonFavNum[] public person */\n            tag_9:\n              0x00\n              dup2\n              dup2\n              sload\n              dup2\n              lt\n              tag_22\n              jumpi\n              0x00\n              dup1\n              revert\n            tag_22:\n              swap1\n              0x00\n              mstore\n              keccak256(0x00, 0x20)\n              swap1\n              0x02\n              mul\n              add\n              0x00\n              swap2\n              pop\n              swap1\n              pop\n              dup1\n              0x00\n              add\n              sload\n              swap1\n              dup1\n              0x01\n              add\n              dup1\n              sload\n              tag_24\n              swap1\n              tag_25\n              jump\t// in\n            tag_24:\n              dup1\n              0x1f\n              add\n              0x20\n              dup1\n              swap2\n              div\n              mul\n              0x20\n              add\n              mload(0x40)\n              swap1\n              dup2\n              add\n              0x40\n              mstore\n              dup1\n              swap3\n              swap2\n              swap1\n              dup2\n              dup2\n              mstore\n              0x20\n              add\n              dup3\n              dup1\n              sload\n              tag_26\n              swap1\n              tag_25\n              jump\t// in\n            tag_26:\n              dup1\n              iszero\n              tag_27\n              jumpi\n              dup1\n              0x1f\n              lt\n              tag_28\n              jumpi\n              0x0100\n              dup1\n              dup4\n              sload\n              div\n              mul\n              dup4\n              mstore\n              swap2\n              0x20\n              add\n              swap2\n              jump(tag_27)\n            tag_28:\n              dup3\n              add\n              swap2\n              swap1\n              0x00\n              mstore\n              keccak256(0x00, 0x20)\n              swap1\n            tag_29:\n              dup2\n              sload\n              dup2\n              mstore\n              swap1\n              0x01\n              add\n              swap1\n              0x20\n              add\n              dup1\n              dup4\n              gt\n              tag_29\n              jumpi\n              dup3\n              swap1\n              sub\n              0x1f\n              and\n              dup3\n              add\n              swap2\n            tag_27:\n              pop\n              pop\n              pop\n              pop\n              pop\n              swap1\n              pop\n              dup3\n              jump\t// out\n                /* \"contracts/SimpleStorage.sol\":366:407  mapping (string => uint) public nameToFav */\n            tag_15:\n              0x01\n              dup2\n              dup1\n              mload\n              0x20\n              dup2\n              add\n              dup3\n              add\n              dup1\n              mload\n              dup5\n              dup3\n              mstore\n              0x20\n              dup4\n              add\n              0x20\n              dup6\n              add\n              keccak256\n              dup2\n              dup4\n              mstore\n              dup1\n              swap6\n              pop\n              pop\n              pop\n              pop\n              pop\n              pop\n              0x00\n              swap2\n              pop\n              swap1\n              pop\n              sload\n              dup2\n              jump\t// out\n                /* \"contracts/SimpleStorage.sol\":569:740  function addPerson(uint _favNum, string memory _name) public {... */\n            tag_21:\n                /* \"contracts/SimpleStorage.sol\":641:647  person */\n              0x00\n                /* \"contracts/SimpleStorage.sol\":653:694  PersonFavNum({favNum:_favNum,name:_name}) */\n              mload(0x40)\n              dup1\n              0x40\n              add\n              0x40\n              mstore\n              dup1\n                /* \"contracts/SimpleStorage.sol\":674:681  _favNum */\n              dup5\n                /* \"contracts/SimpleStorage.sol\":653:694  PersonFavNum({favNum:_favNum,name:_name}) */\n              dup2\n              mstore\n              0x20\n              add\n                /* \"contracts/SimpleStorage.sol\":687:692  _name */\n              dup4\n                /* \"contracts/SimpleStorage.sol\":653:694  PersonFavNum({favNum:_favNum,name:_name}) */\n              dup2\n              mstore\n              pop\n                /* \"contracts/SimpleStorage.sol\":641:695  person.push(PersonFavNum({favNum:_favNum,name:_name})) */\n              swap1\n              dup1\n              0x01\n              dup2\n              sload\n              add\n              dup1\n              dup3\n              sstore\n              dup1\n              swap2\n              pop\n              pop\n              0x01\n              swap1\n              sub\n              swap1\n              0x00\n              mstore\n              keccak256(0x00, 0x20)\n              swap1\n              0x02\n              mul\n              add\n              0x00\n              swap1\n              swap2\n              swap1\n              swap2\n              swap1\n              swap2\n              pop\n              0x00\n              dup3\n              add\n              mload\n              dup2\n              0x00\n              add\n              sstore\n              0x20\n              dup3\n              add\n              mload\n              dup2\n              0x01\n              add\n              swap1\n              dup2\n              tag_32\n              swap2\n              swap1\n              tag_33\n              jump\t// in\n            tag_32:\n              pop\n              pop\n              pop\n                /* \"contracts/SimpleStorage.sol\":725:732  _favNum */\n              dup2\n                /* \"contracts/SimpleStorage.sol\":706:715  nameToFav */\n              0x01\n                /* \"contracts/SimpleStorage.sol\":716:721  _name */\n              dup3\n                /* \"contracts/SimpleStorage.sol\":706:722  nameToFav[_name] */\n              mload(0x40)\n              tag_34\n              swap2\n              swap1\n              tag_35\n              jump\t// in\n            tag_34:\n              swap1\n              dup2\n              mstore\n              0x20\n              add\n              mload(0x40)\n              dup1\n              swap2\n              sub\n              swap1\n              keccak256\n                /* \"contracts/SimpleStorage.sol\":706:732  nameToFav[_name] = _favNum */\n              dup2\n              swap1\n              sstore\n              pop\n                /* \"contracts/SimpleStorage.sol\":569:740  function addPerson(uint _favNum, string memory _name) public {... */\n              pop\n              pop\n              jump\t// out\n                /* \"#utility.yul\":7:82   */\n            tag_36:\n                /* \"#utility.yul\":40:46   */\n              0x00\n                /* \"#utility.yul\":73:75   */\n              0x40\n                /* \"#utility.yul\":67:76   */\n              mload\n                /* \"#utility.yul\":57:76   */\n              swap1\n              pop\n                /* \"#utility.yul\":7:82   */\n              swap1\n              jump\t// out\n                /* \"#utility.yul\":88:205   */\n            tag_37:\n                /* \"#utility.yul\":197:198   */\n              0x00\n                /* \"#utility.yul\":194:195   */\n              dup1\n                /* \"#utility.yul\":187:199   */\n              revert\n                /* \"#utility.yul\":211:328   */\n            tag_38:\n                /* \"#utility.yul\":320:321   */\n              0x00\n                /* \"#utility.yul\":317:318   */\n              dup1\n                /* \"#utility.yul\":310:322   */\n              revert\n                /* \"#utility.yul\":334:411   */\n            tag_39:\n                /* \"#utility.yul\":371:378   */\n              0x00\n                /* \"#utility.yul\":400:405   */\n              dup2\n                /* \"#utility.yul\":389:405   */\n              swap1\n              pop\n                /* \"#utility.yul\":334:411   */\n              swap2\n              swap1\n              pop\n              jump\t// out\n                /* \"#utility.yul\":417:539   */\n            tag_40:\n                /* \"#utility.yul\":490:514   */\n              tag_81\n                /* \"#utility.yul\":508:513   */\n              dup2\n                /* \"#utility.yul\":490:514   */\n              tag_39\n              jump\t// in\n            tag_81:\n                /* \"#utility.yul\":483:488   */\n              dup2\n                /* \"#utility.yul\":480:515   */\n              eq\n                /* \"#utility.yul\":470:533   */\n              tag_82\n              jumpi\n                /* \"#utility.yul\":529:530   */\n              0x00\n                /* \"#utility.yul\":526:527   */\n              dup1\n                /* \"#utility.yul\":519:531   */\n              revert\n                /* \"#utility.yul\":470:533   */\n            tag_82:\n                /* \"#utility.yul\":417:539   */\n              pop\n              jump\t// out\n                /* \"#utility.yul\":545:684   */\n            tag_41:\n                /* \"#utility.yul\":591:596   */\n              0x00\n                /* \"#utility.yul\":629:635   */\n              dup2\n                /* \"#utility.yul\":616:636   */\n              calldataload\n                /* \"#utility.yul\":607:636   */\n              swap1\n              pop\n                /* \"#utility.yul\":645:678   */\n              tag_84\n                /* \"#utility.yul\":672:677   */\n              dup2\n                /* \"#utility.yul\":645:678   */\n              tag_40\n              jump\t// in\n            tag_84:\n                /* \"#utility.yul\":545:684   */\n              swap3\n              swap2\n              pop\n              pop\n              jump\t// out\n                /* \"#utility.yul\":690:1019   */\n            tag_8:\n                /* \"#utility.yul\":749:755   */\n              0x00\n                /* \"#utility.yul\":798:800   */\n              0x20\n                /* \"#utility.yul\":786:795   */\n              dup3\n                /* \"#utility.yul\":777:784   */\n              dup5\n                /* \"#utility.yul\":773:796   */\n              sub\n                /* \"#utility.yul\":769:801   */\n              slt\n                /* \"#utility.yul\":766:885   */\n              iszero\n              tag_86\n              jumpi\n                /* \"#utility.yul\":804:883   */\n              tag_87\n              tag_37\n              jump\t// in\n            tag_87:\n                /* \"#utility.yul\":766:885   */\n            tag_86:\n                /* \"#utility.yul\":924:925   */\n              0x00\n                /* \"#utility.yul\":949:1002   */\n              tag_88\n                /* \"#utility.yul\":994:1001   */\n              dup5\n                /* \"#utility.yul\":985:991   */\n              dup3\n                /* \"#utility.yul\":974:983   */\n              dup6\n                /* \"#utility.yul\":970:992   */\n              add\n                /* \"#utility.yul\":949:1002   */\n              tag_41\n              jump\t// in\n            tag_88:\n                /* \"#utility.yul\":939:1002   */\n              swap2\n              pop\n                /* \"#utility.yul\":895:1012   */\n              pop\n                /* \"#utility.yul\":690:1019   */\n              swap3\n              swap2\n              pop\n              pop\n              jump\t// out\n                /* \"#utility.yul\":1025:1143   */\n            tag_42:\n                /* \"#utility.yul\":1112:1136   */\n              tag_90\n                /* \"#utility.yul\":1130:1135   */\n              dup2\n                /* \"#utility.yul\":1112:1136   */\n              tag_39\n              jump\t// in\n            tag_90:\n                /* \"#utility.yul\":1107:1110   */\n              dup3\n                /* \"#utility.yul\":1100:1137   */\n              mstore\n                /* \"#utility.yul\":1025:1143   */\n              pop\n              pop\n              jump\t// out\n                /* \"#utility.yul\":1149:1248   */\n            tag_43:\n                /* \"#utility.yul\":1201:1207   */\n              0x00\n                /* \"#utility.yul\":1235:1240   */\n              dup2\n                /* \"#utility.yul\":1229:1241   */\n              mload\n                /* \"#utility.yul\":1219:1241   */\n              swap1\n              pop\n                /* \"#utility.yul\":1149:1248   */\n              swap2\n              swap1\n              pop\n              jump\t// out\n                /* \"#utility.yul\":1254:1423   */\n            tag_44:\n                /* \"#utility.yul\":1338:1349   */\n              0x00\n                /* \"#utility.yul\":1372:1378   */\n              dup3\n                /* \"#utility.yul\":1367:1370   */\n              dup3\n                /* \"#utility.yul\":1360:1379   */\n              mstore\n                /* \"#utility.yul\":1412:1416   */\n              0x20\n                /* \"#utility.yul\":1407:1410   */\n              dup3\n                /* \"#utility.yul\":1403:1417   */\n              add\n                /* \"#utility.yul\":1388:1417   */\n              swap1\n              pop\n                /* \"#utility.yul\":1254:1423   */\n              swap3\n              swap2\n              pop\n              pop\n              jump\t// out\n                /* \"#utility.yul\":1429:1675   */\n            tag_45:\n                /* \"#utility.yul\":1510:1511   */\n              0x00\n                /* \"#utility.yul\":1520:1633   */\n            tag_94:\n                /* \"#utility.yul\":1534:1540   */\n              dup4\n                /* \"#utility.yul\":1531:1532   */\n              dup2\n                /* \"#utility.yul\":1528:1541   */\n              lt\n                /* \"#utility.yul\":1520:1633   */\n              iszero\n              tag_96\n              jumpi\n                /* \"#utility.yul\":1619:1620   */\n              dup1\n                /* \"#utility.yul\":1614:1617   */\n              dup3\n                /* \"#utility.yul\":1610:1621   */\n              add\n                /* \"#utility.yul\":1604:1622   */\n              mload\n                /* \"#utility.yul\":1600:1601   */\n              dup2\n                /* \"#utility.yul\":1595:1598   */\n              dup5\n                /* \"#utility.yul\":1591:1602   */\n              add\n                /* \"#utility.yul\":1584:1623   */\n              mstore\n                /* \"#utility.yul\":1556:1558   */\n              0x20\n                /* \"#utility.yul\":1553:1554   */\n              dup2\n                /* \"#utility.yul\":1549:1559   */\n              add\n                /* \"#utility.yul\":1544:1559   */\n              swap1\n              pop\n                /* \"#utility.yul\":1520:1633   */\n              jump(tag_94)\n            tag_96:\n                /* \"#utility.yul\":1667:1668   */\n              0x00\n                /* \"#utility.yul\":1658:1664   */\n              dup5\n                /* \"#utility.yul\":1653:1656   */\n              dup5\n                /* \"#utility.yul\":1649:1665   */\n              add\n                /* \"#utility.yul\":1642:1669   */\n              mstore\n                /* \"#utility.yul\":1491:1675   */\n              pop\n                /* \"#utility.yul\":1429:1675   */\n              pop\n              pop\n              pop\n              jump\t// out\n                /* \"#utility.yul\":1681:1783   */\n            tag_46:\n                /* \"#utility.yul\":1722:1728   */\n              0x00\n                /* \"#utility.yul\":1773:1775   */\n              0x1f\n                /* \"#utility.yul\":1769:1776   */\n              not\n                /* \"#utility.yul\":1764:1766   */\n              0x1f\n                /* \"#utility.yul\":1757:1762   */\n              dup4\n                /* \"#utility.yul\":1753:1767   */\n              add\n                /* \"#utility.yul\":1749:1777   */\n              and\n                /* \"#utility.yul\":1739:1777   */\n              swap1\n              pop\n                /* \"#utility.yul\":1681:1783   */\n              swap2\n              swap1\n              pop\n              jump\t// out\n                /* \"#utility.yul\":1789:2166   */\n            tag_47:\n                /* \"#utility.yul\":1877:1880   */\n              0x00\n                /* \"#utility.yul\":1905:1944   */\n              tag_99\n                /* \"#utility.yul\":1938:1943   */\n              dup3\n                /* \"#utility.yul\":1905:1944   */\n              tag_43\n              jump\t// in\n            tag_99:\n                /* \"#utility.yul\":1960:2031   */\n              tag_100\n                /* \"#utility.yul\":2024:2030   */\n              dup2\n                /* \"#utility.yul\":2019:2022   */\n              dup6\n                /* \"#utility.yul\":1960:2031   */\n              tag_44\n              jump\t// in\n            tag_100:\n                /* \"#utility.yul\":1953:2031   */\n              swap4\n              pop\n                /* \"#utility.yul\":2040:2105   */\n              tag_101\n                /* \"#utility.yul\":2098:2104   */\n              dup2\n                /* \"#utility.yul\":2093:2096   */\n              dup6\n                /* \"#utility.yul\":2086:2090   */\n              0x20\n                /* \"#utility.yul\":2079:2084   */\n              dup7\n                /* \"#utility.yul\":2075:2091   */\n              add\n                /* \"#utility.yul\":2040:2105   */\n              tag_45\n              jump\t// in\n            tag_101:\n                /* \"#utility.yul\":2130:2159   */\n              tag_102\n                /* \"#utility.yul\":2152:2158   */\n              dup2\n                /* \"#utility.yul\":2130:2159   */\n              tag_46\n              jump\t// in\n            tag_102:\n                /* \"#utility.yul\":2125:2128   */\n              dup5\n                /* \"#utility.yul\":2121:2160   */\n              add\n                /* \"#utility.yul\":2114:2160   */\n              swap2\n              pop\n                /* \"#utility.yul\":1881:2166   */\n              pop\n                /* \"#utility.yul\":1789:2166   */\n              swap3\n              swap2\n              pop\n              pop\n              jump\t// out\n                /* \"#utility.yul\":2172:2595   */\n            tag_11:\n                /* \"#utility.yul\":2313:2317   */\n              0x00\n                /* \"#utility.yul\":2351:2353   */\n              0x40\n                /* \"#utility.yul\":2340:2349   */\n              dup3\n                /* \"#utility.yul\":2336:2354   */\n              add\n                /* \"#utility.yul\":2328:2354   */\n              swap1\n              pop\n                /* \"#utility.yul\":2364:2435   */\n              tag_104\n                /* \"#utility.yul\":2432:2433   */\n              0x00\n                /* \"#utility.yul\":2421:2430   */\n              dup4\n                /* \"#utility.yul\":2417:2434   */\n              add\n                /* \"#utility.yul\":2408:2414   */\n              dup6\n                /* \"#utility.yul\":2364:2435   */\n              tag_42\n              jump\t// in\n            tag_104:\n                /* \"#utility.yul\":2482:2491   */\n              dup2\n                /* \"#utility.yul\":2476:2480   */\n              dup2\n                /* \"#utility.yul\":2472:2492   */\n              sub\n                /* \"#utility.yul\":2467:2469   */\n              0x20\n                /* \"#utility.yul\":2456:2465   */\n              dup4\n                /* \"#utility.yul\":2452:2470   */\n              add\n                /* \"#utility.yul\":2445:2493   */\n              mstore\n                /* \"#utility.yul\":2510:2588   */\n              tag_105\n                /* \"#utility.yul\":2583:2587   */\n              dup2\n                /* \"#utility.yul\":2574:2580   */\n              dup5\n                /* \"#utility.yul\":2510:2588   */\n              tag_47\n              jump\t// in\n            tag_105:\n                /* \"#utility.yul\":2502:2588   */\n              swap1\n              pop\n                /* \"#utility.yul\":2172:2595   */\n              swap4\n              swap3\n              pop\n              pop\n              pop\n              jump\t// out\n                /* \"#utility.yul\":2601:2718   */\n            tag_48:\n                /* \"#utility.yul\":2710:2711   */\n              0x00\n                /* \"#utility.yul\":2707:2708   */\n              dup1\n                /* \"#utility.yul\":2700:2712   */\n              revert\n                /* \"#utility.yul\":2724:2841   */\n            tag_49:\n                /* \"#utility.yul\":2833:2834   */\n              0x00\n                /* \"#utility.yul\":2830:2831   */\n              dup1\n                /* \"#utility.yul\":2823:2835   */\n              revert\n                /* \"#utility.yul\":2847:3027   */\n            tag_50:\n                /* \"#utility.yul\":2895:2972   */\n              0x4e487b7100000000000000000000000000000000000000000000000000000000\n                /* \"#utility.yul\":2892:2893   */\n              0x00\n                /* \"#utility.yul\":2885:2973   */\n              mstore\n                /* \"#utility.yul\":2992:2996   */\n              0x41\n                /* \"#utility.yul\":2989:2990   */\n              0x04\n                /* \"#utility.yul\":2982:2997   */\n              mstore\n                /* \"#utility.yul\":3016:3020   */\n              0x24\n                /* \"#utility.yul\":3013:3014   */\n              0x00\n                /* \"#utility.yul\":3006:3021   */\n              revert\n                /* \"#utility.yul\":3033:3314   */\n            tag_51:\n                /* \"#utility.yul\":3116:3143   */\n              tag_110\n                /* \"#utility.yul\":3138:3142   */\n              dup3\n                /* \"#utility.yul\":3116:3143   */\n              tag_46\n              jump\t// in\n            tag_110:\n                /* \"#utility.yul\":3108:3114   */\n              dup2\n                /* \"#utility.yul\":3104:3144   */\n              add\n                /* \"#utility.yul\":3246:3252   */\n              dup2\n                /* \"#utility.yul\":3234:3244   */\n              dup2\n                /* \"#utility.yul\":3231:3253   */\n              lt\n                /* \"#utility.yul\":3210:3228   */\n              0xffffffffffffffff\n                /* \"#utility.yul\":3198:3208   */\n              dup3\n                /* \"#utility.yul\":3195:3229   */\n              gt\n                /* \"#utility.yul\":3192:3254   */\n              or\n                /* \"#utility.yul\":3189:3277   */\n              iszero\n              tag_111\n              jumpi\n                /* \"#utility.yul\":3257:3275   */\n              tag_112\n              tag_50\n              jump\t// in\n            tag_112:\n                /* \"#utility.yul\":3189:3277   */\n            tag_111:\n                /* \"#utility.yul\":3297:3307   */\n              dup1\n                /* \"#utility.yul\":3293:3295   */\n              0x40\n                /* \"#utility.yul\":3286:3308   */\n              mstore\n                /* \"#utility.yul\":3076:3314   */\n              pop\n                /* \"#utility.yul\":3033:3314   */\n              pop\n              pop\n              jump\t// out\n                /* \"#utility.yul\":3320:3449   */\n            tag_52:\n                /* \"#utility.yul\":3354:3360   */\n              0x00\n                /* \"#utility.yul\":3381:3401   */\n              tag_114\n              tag_36\n              jump\t// in\n            tag_114:\n                /* \"#utility.yul\":3371:3401   */\n              swap1\n              pop\n                /* \"#utility.yul\":3410:3443   */\n              tag_115\n                /* \"#utility.yul\":3438:3442   */\n              dup3\n                /* \"#utility.yul\":3430:3436   */\n              dup3\n                /* \"#utility.yul\":3410:3443   */\n              tag_51\n              jump\t// in\n            tag_115:\n                /* \"#utility.yul\":3320:3449   */\n              swap2\n              swap1\n              pop\n              jump\t// out\n                /* \"#utility.yul\":3455:3763   */\n            tag_53:\n                /* \"#utility.yul\":3517:3521   */\n              0x00\n                /* \"#utility.yul\":3607:3625   */\n              0xffffffffffffffff\n                /* \"#utility.yul\":3599:3605   */\n              dup3\n                /* \"#utility.yul\":3596:3626   */\n              gt\n                /* \"#utility.yul\":3593:3649   */\n              iszero\n              tag_117\n              jumpi\n                /* \"#utility.yul\":3629:3647   */\n              tag_118\n              tag_50\n              jump\t// in\n            tag_118:\n                /* \"#utility.yul\":3593:3649   */\n            tag_117:\n                /* \"#utility.yul\":3667:3696   */\n              tag_119\n                /* \"#utility.yul\":3689:3695   */\n              dup3\n                /* \"#utility.yul\":3667:3696   */\n              tag_46\n              jump\t// in\n            tag_119:\n                /* \"#utility.yul\":3659:3696   */\n              swap1\n              pop\n                /* \"#utility.yul\":3751:3755   */\n              0x20\n                /* \"#utility.yul\":3745:3749   */\n              dup2\n                /* \"#utility.yul\":3741:3756   */\n              add\n                /* \"#utility.yul\":3733:3756   */\n              swap1\n              pop\n                /* \"#utility.yul\":3455:3763   */\n              swap2\n              swap1\n              pop\n              jump\t// out\n                /* \"#utility.yul\":3769:3915   */\n            tag_54:\n                /* \"#utility.yul\":3866:3872   */\n              dup3\n                /* \"#utility.yul\":3861:3864   */\n              dup2\n                /* \"#utility.yul\":3856:3859   */\n              dup4\n                /* \"#utility.yul\":3843:3873   */\n              calldatacopy\n                /* \"#utility.yul\":3907:3908   */\n              0x00\n                /* \"#utility.yul\":3898:3904   */\n              dup4\n                /* \"#utility.yul\":3893:3896   */\n              dup4\n                /* \"#utility.yul\":3889:3905   */\n              add\n                /* \"#utility.yul\":3882:3909   */\n              mstore\n                /* \"#utility.yul\":3769:3915   */\n              pop\n              pop\n              pop\n              jump\t// out\n                /* \"#utility.yul\":3921:4346   */\n            tag_55:\n                /* \"#utility.yul\":3999:4004   */\n              0x00\n                /* \"#utility.yul\":4024:4090   */\n              tag_122\n                /* \"#utility.yul\":4040:4089   */\n              tag_123\n                /* \"#utility.yul\":4082:4088   */\n              dup5\n                /* \"#utility.yul\":4040:4089   */\n              tag_53\n              jump\t// in\n            tag_123:\n                /* \"#utility.yul\":4024:4090   */\n              tag_52\n              jump\t// in\n            tag_122:\n                /* \"#utility.yul\":4015:4090   */\n              swap1\n              pop\n                /* \"#utility.yul\":4113:4119   */\n              dup3\n                /* \"#utility.yul\":4106:4111   */\n              dup2\n                /* \"#utility.yul\":4099:4120   */\n              mstore\n                /* \"#utility.yul\":4151:4155   */\n              0x20\n                /* \"#utility.yul\":4144:4149   */\n              dup2\n                /* \"#utility.yul\":4140:4156   */\n              add\n                /* \"#utility.yul\":4189:4192   */\n              dup5\n                /* \"#utility.yul\":4180:4186   */\n              dup5\n                /* \"#utility.yul\":4175:4178   */\n              dup5\n                /* \"#utility.yul\":4171:4187   */\n              add\n                /* \"#utility.yul\":4168:4193   */\n              gt\n                /* \"#utility.yul\":4165:4277   */\n              iszero\n              tag_124\n              jumpi\n                /* \"#utility.yul\":4196:4275   */\n              tag_125\n              tag_49\n              jump\t// in\n            tag_125:\n                /* \"#utility.yul\":4165:4277   */\n            tag_124:\n                /* \"#utility.yul\":4286:4340   */\n              tag_126\n                /* \"#utility.yul\":4333:4339   */\n              dup5\n                /* \"#utility.yul\":4328:4331   */\n              dup3\n                /* \"#utility.yul\":4323:4326   */\n              dup6\n                /* \"#utility.yul\":4286:4340   */\n              tag_54\n              jump\t// in\n            tag_126:\n                /* \"#utility.yul\":4005:4346   */\n              pop\n                /* \"#utility.yul\":3921:4346   */\n              swap4\n              swap3\n              pop\n              pop\n              pop\n              jump\t// out\n                /* \"#utility.yul\":4366:4706   */\n            tag_56:\n                /* \"#utility.yul\":4422:4427   */\n              0x00\n                /* \"#utility.yul\":4471:4474   */\n              dup3\n                /* \"#utility.yul\":4464:4468   */\n              0x1f\n                /* \"#utility.yul\":4456:4462   */\n              dup4\n                /* \"#utility.yul\":4452:4469   */\n              add\n                /* \"#utility.yul\":4448:4475   */\n              slt\n                /* \"#utility.yul\":4438:4560   */\n              tag_128\n              jumpi\n                /* \"#utility.yul\":4479:4558   */\n              tag_129\n              tag_48\n              jump\t// in\n            tag_129:\n                /* \"#utility.yul\":4438:4560   */\n            tag_128:\n                /* \"#utility.yul\":4596:4602   */\n              dup2\n                /* \"#utility.yul\":4583:4603   */\n              calldataload\n                /* \"#utility.yul\":4621:4700   */\n              tag_130\n                /* \"#utility.yul\":4696:4699   */\n              dup5\n                /* \"#utility.yul\":4688:4694   */\n              dup3\n                /* \"#utility.yul\":4681:4685   */\n              0x20\n                /* \"#utility.yul\":4673:4679   */\n              dup7\n                /* \"#utility.yul\":4669:4686   */\n              add\n                /* \"#utility.yul\":4621:4700   */\n              tag_55\n              jump\t// in\n            tag_130:\n                /* \"#utility.yul\":4612:4700   */\n              swap2\n              pop\n                /* \"#utility.yul\":4428:4706   */\n              pop\n                /* \"#utility.yul\":4366:4706   */\n              swap3\n              swap2\n              pop\n              pop\n              jump\t// out\n                /* \"#utility.yul\":4712:5221   */\n            tag_14:\n                /* \"#utility.yul\":4781:4787   */\n              0x00\n                /* \"#utility.yul\":4830:4832   */\n              0x20\n                /* \"#utility.yul\":4818:4827   */\n              dup3\n                /* \"#utility.yul\":4809:4816   */\n              dup5\n                /* \"#utility.yul\":4805:4828   */\n              sub\n                /* \"#utility.yul\":4801:4833   */\n              slt\n                /* \"#utility.yul\":4798:4917   */\n              iszero\n              tag_132\n              jumpi\n                /* \"#utility.yul\":4836:4915   */\n              tag_133\n              tag_37\n              jump\t// in\n            tag_133:\n                /* \"#utility.yul\":4798:4917   */\n            tag_132:\n                /* \"#utility.yul\":4984:4985   */\n              0x00\n                /* \"#utility.yul\":4973:4982   */\n              dup3\n                /* \"#utility.yul\":4969:4986   */\n              add\n                /* \"#utility.yul\":4956:4987   */\n              calldataload\n                /* \"#utility.yul\":5014:5032   */\n              0xffffffffffffffff\n                /* \"#utility.yul\":5006:5012   */\n              dup2\n                /* \"#utility.yul\":5003:5033   */\n              gt\n                /* \"#utility.yul\":5000:5117   */\n              iszero\n              tag_134\n              jumpi\n                /* \"#utility.yul\":5036:5115   */\n              tag_135\n              tag_38\n              jump\t// in\n            tag_135:\n                /* \"#utility.yul\":5000:5117   */\n            tag_134:\n                /* \"#utility.yul\":5141:5204   */\n              tag_136\n                /* \"#utility.yul\":5196:5203   */\n              dup5\n                /* \"#utility.yul\":5187:5193   */\n              dup3\n                /* \"#utility.yul\":5176:5185   */\n              dup6\n                /* \"#utility.yul\":5172:5194   */\n              add\n                /* \"#utility.yul\":5141:5204   */\n              tag_56\n              jump\t// in\n            tag_136:\n                /* \"#utility.yul\":5131:5204   */\n              swap2\n              pop\n                /* \"#utility.yul\":4927:5214   */\n              pop\n                /* \"#utility.yul\":4712:5221   */\n              swap3\n              swap2\n              pop\n              pop\n              jump\t// out\n                /* \"#utility.yul\":5227:5449   */\n            tag_17:\n                /* \"#utility.yul\":5320:5324   */\n              0x00\n                /* \"#utility.yul\":5358:5360   */\n              0x20\n                /* \"#utility.yul\":5347:5356   */\n              dup3\n                /* \"#utility.yul\":5343:5361   */\n              add\n                /* \"#utility.yul\":5335:5361   */\n              swap1\n              pop\n                /* \"#utility.yul\":5371:5442   */\n              tag_138\n                /* \"#utility.yul\":5439:5440   */\n              0x00\n                /* \"#utility.yul\":5428:5437   */\n              dup4\n                /* \"#utility.yul\":5424:5441   */\n              add\n                /* \"#utility.yul\":5415:5421   */\n              dup5\n                /* \"#utility.yul\":5371:5442   */\n              tag_42\n              jump\t// in\n            tag_138:\n                /* \"#utility.yul\":5227:5449   */\n              swap3\n              swap2\n              pop\n              pop\n              jump\t// out\n                /* \"#utility.yul\":5455:6109   */\n            tag_20:\n                /* \"#utility.yul\":5533:5539   */\n              0x00\n                /* \"#utility.yul\":5541:5547   */\n              dup1\n                /* \"#utility.yul\":5590:5592   */\n              0x40\n                /* \"#utility.yul\":5578:5587   */\n              dup4\n                /* \"#utility.yul\":5569:5576   */\n              dup6\n                /* \"#utility.yul\":5565:5588   */\n              sub\n                /* \"#utility.yul\":5561:5593   */\n              slt\n                /* \"#utility.yul\":5558:5677   */\n              iszero\n              tag_140\n              jumpi\n                /* \"#utility.yul\":5596:5675   */\n              tag_141\n              tag_37\n              jump\t// in\n            tag_141:\n                /* \"#utility.yul\":5558:5677   */\n            tag_140:\n                /* \"#utility.yul\":5716:5717   */\n              0x00\n                /* \"#utility.yul\":5741:5794   */\n              tag_142\n                /* \"#utility.yul\":5786:5793   */\n              dup6\n                /* \"#utility.yul\":5777:5783   */\n              dup3\n                /* \"#utility.yul\":5766:5775   */\n              dup7\n                /* \"#utility.yul\":5762:5784   */\n              add\n                /* \"#utility.yul\":5741:5794   */\n              tag_41\n              jump\t// in\n            tag_142:\n                /* \"#utility.yul\":5731:5794   */\n              swap3\n              pop\n                /* \"#utility.yul\":5687:5804   */\n              pop\n                /* \"#utility.yul\":5871:5873   */\n              0x20\n                /* \"#utility.yul\":5860:5869   */\n              dup4\n                /* \"#utility.yul\":5856:5874   */\n              add\n                /* \"#utility.yul\":5843:5875   */\n              calldataload\n                /* \"#utility.yul\":5902:5920   */\n              0xffffffffffffffff\n                /* \"#utility.yul\":5894:5900   */\n              dup2\n                /* \"#utility.yul\":5891:5921   */\n              gt\n                /* \"#utility.yul\":5888:6005   */\n              iszero\n              tag_143\n              jumpi\n                /* \"#utility.yul\":5924:6003   */\n              tag_144\n              tag_38\n              jump\t// in\n            tag_144:\n                /* \"#utility.yul\":5888:6005   */\n            tag_143:\n                /* \"#utility.yul\":6029:6092   */\n              tag_145\n                /* \"#utility.yul\":6084:6091   */\n              dup6\n                /* \"#utility.yul\":6075:6081   */\n              dup3\n                /* \"#utility.yul\":6064:6073   */\n              dup7\n                /* \"#utility.yul\":6060:6082   */\n              add\n                /* \"#utility.yul\":6029:6092   */\n              tag_56\n              jump\t// in\n            tag_145:\n                /* \"#utility.yul\":6019:6092   */\n              swap2\n              pop\n                /* \"#utility.yul\":5814:6102   */\n              pop\n                /* \"#utility.yul\":5455:6109   */\n              swap3\n              pop\n              swap3\n              swap1\n              pop\n              jump\t// out\n                /* \"#utility.yul\":6115:6295   */\n            tag_57:\n                /* \"#utility.yul\":6163:6240   */\n              0x4e487b7100000000000000000000000000000000000000000000000000000000\n                /* \"#utility.yul\":6160:6161   */\n              0x00\n                /* \"#utility.yul\":6153:6241   */\n              mstore\n                /* \"#utility.yul\":6260:6264   */\n              0x22\n                /* \"#utility.yul\":6257:6258   */\n              0x04\n                /* \"#utility.yul\":6250:6265   */\n              mstore\n                /* \"#utility.yul\":6284:6288   */\n              0x24\n                /* \"#utility.yul\":6281:6282   */\n              0x00\n                /* \"#utility.yul\":6274:6289   */\n              revert\n                /* \"#utility.yul\":6301:6621   */\n            tag_25:\n                /* \"#utility.yul\":6345:6351   */\n              0x00\n                /* \"#utility.yul\":6382:6383   */\n              0x02\n                /* \"#utility.yul\":6376:6380   */\n              dup3\n                /* \"#utility.yul\":6372:6384   */\n              div\n                /* \"#utility.yul\":6362:6384   */\n              swap1\n              pop\n                /* \"#utility.yul\":6429:6430   */\n              0x01\n                /* \"#utility.yul\":6423:6427   */\n              dup3\n                /* \"#utility.yul\":6419:6431   */\n              and\n                /* \"#utility.yul\":6450:6468   */\n              dup1\n                /* \"#utility.yul\":6440:6521   */\n              tag_148\n              jumpi\n                /* \"#utility.yul\":6506:6510   */\n              0x7f\n                /* \"#utility.yul\":6498:6504   */\n              dup3\n                /* \"#utility.yul\":6494:6511   */\n              and\n                /* \"#utility.yul\":6484:6511   */\n              swap2\n              pop\n                /* \"#utility.yul\":6440:6521   */\n            tag_148:\n                /* \"#utility.yul\":6568:6570   */\n              0x20\n                /* \"#utility.yul\":6560:6566   */\n              dup3\n                /* \"#utility.yul\":6557:6571   */\n              lt\n                /* \"#utility.yul\":6537:6555   */\n              dup2\n                /* \"#utility.yul\":6534:6572   */\n              sub\n                /* \"#utility.yul\":6531:6615   */\n              tag_149\n              jumpi\n                /* \"#utility.yul\":6587:6605   */\n              tag_150\n              tag_57\n              jump\t// in\n            tag_150:\n                /* \"#utility.yul\":6531:6615   */\n            tag_149:\n                /* \"#utility.yul\":6352:6621   */\n              pop\n                /* \"#utility.yul\":6301:6621   */\n              swap2\n              swap1\n              pop\n              jump\t// out\n                /* \"#utility.yul\":6627:6768   */\n            tag_58:\n                /* \"#utility.yul\":6676:6680   */\n              0x00\n                /* \"#utility.yul\":6699:6702   */\n              dup2\n                /* \"#utility.yul\":6691:6702   */\n              swap1\n              pop\n                /* \"#utility.yul\":6722:6725   */\n              dup2\n                /* \"#utility.yul\":6719:6720   */\n              0x00\n                /* \"#utility.yul\":6712:6726   */\n              mstore\n                /* \"#utility.yul\":6756:6760   */\n              0x20\n                /* \"#utility.yul\":6753:6754   */\n              0x00\n                /* \"#utility.yul\":6743:6761   */\n              keccak256\n                /* \"#utility.yul\":6735:6761   */\n              swap1\n              pop\n                /* \"#utility.yul\":6627:6768   */\n              swap2\n              swap1\n              pop\n              jump\t// out\n                /* \"#utility.yul\":6774:6867   */\n            tag_59:\n                /* \"#utility.yul\":6811:6817   */\n              0x00\n                /* \"#utility.yul\":6858:6860   */\n              0x20\n                /* \"#utility.yul\":6853:6855   */\n              0x1f\n                /* \"#utility.yul\":6846:6851   */\n              dup4\n                /* \"#utility.yul\":6842:6856   */\n              add\n                /* \"#utility.yul\":6838:6861   */\n              div\n                /* \"#utility.yul\":6828:6861   */\n              swap1\n              pop\n                /* \"#utility.yul\":6774:6867   */\n              swap2\n              swap1\n              pop\n              jump\t// out\n                /* \"#utility.yul\":6873:6980   */\n            tag_60:\n                /* \"#utility.yul\":6917:6925   */\n              0x00\n                /* \"#utility.yul\":6967:6972   */\n              dup3\n                /* \"#utility.yul\":6961:6965   */\n              dup3\n                /* \"#utility.yul\":6957:6973   */\n              shl\n                /* \"#utility.yul\":6936:6973   */\n              swap1\n              pop\n                /* \"#utility.yul\":6873:6980   */\n              swap3\n              swap2\n              pop\n              pop\n              jump\t// out\n                /* \"#utility.yul\":6986:7379   */\n            tag_61:\n                /* \"#utility.yul\":7055:7061   */\n              0x00\n                /* \"#utility.yul\":7105:7106   */\n              0x08\n                /* \"#utility.yul\":7093:7103   */\n              dup4\n                /* \"#utility.yul\":7089:7107   */\n              mul\n                /* \"#utility.yul\":7128:7225   */\n              tag_155\n                /* \"#utility.yul\":7158:7224   */\n              0xffffffffffffffffffffffffffffffffffffffffffffffffffffffffffffffff\n                /* \"#utility.yul\":7147:7156   */\n              dup3\n                /* \"#utility.yul\":7128:7225   */\n              tag_60\n              jump\t// in\n            tag_155:\n                /* \"#utility.yul\":7246:7285   */\n              tag_156\n                /* \"#utility.yul\":7276:7284   */\n              dup7\n                /* \"#utility.yul\":7265:7274   */\n              dup4\n                /* \"#utility.yul\":7246:7285   */\n              tag_60\n              jump\t// in\n            tag_156:\n                /* \"#utility.yul\":7234:7285   */\n              swap6\n              pop\n                /* \"#utility.yul\":7318:7322   */\n              dup1\n                /* \"#utility.yul\":7314:7323   */\n              not\n                /* \"#utility.yul\":7307:7312   */\n              dup5\n                /* \"#utility.yul\":7303:7324   */\n              and\n                /* \"#utility.yul\":7294:7324   */\n              swap4\n              pop\n                /* \"#utility.yul\":7367:7371   */\n              dup1\n                /* \"#utility.yul\":7357:7365   */\n              dup7\n                /* \"#utility.yul\":7353:7372   */\n              and\n                /* \"#utility.yul\":7346:7351   */\n              dup5\n                /* \"#utility.yul\":7343:7373   */\n              or\n                /* \"#utility.yul\":7333:7373   */\n              swap3\n              pop\n                /* \"#utility.yul\":7062:7379   */\n              pop\n              pop\n                /* \"#utility.yul\":6986:7379   */\n              swap4\n              swap3\n              pop\n              pop\n              pop\n              jump\t// out\n                /* \"#utility.yul\":7385:7445   */\n            tag_62:\n                /* \"#utility.yul\":7413:7416   */\n              0x00\n                /* \"#utility.yul\":7434:7439   */\n              dup2\n                /* \"#utility.yul\":7427:7439   */\n              swap1\n              pop\n                /* \"#utility.yul\":7385:7445   */\n              swap2\n              swap1\n              pop\n              jump\t// out\n                /* \"#utility.yul\":7451:7593   */\n            tag_63:\n                /* \"#utility.yul\":7501:7510   */\n              0x00\n                /* \"#utility.yul\":7534:7587   */\n              tag_159\n                /* \"#utility.yul\":7552:7586   */\n              tag_160\n                /* \"#utility.yul\":7561:7585   */\n              tag_161\n                /* \"#utility.yul\":7579:7584   */\n              dup5\n                /* \"#utility.yul\":7561:7585   */\n              tag_39\n              jump\t// in\n            tag_161:\n                /* \"#utility.yul\":7552:7586   */\n              tag_62\n              jump\t// in\n            tag_160:\n                /* \"#utility.yul\":7534:7587   */\n              tag_39\n              jump\t// in\n            tag_159:\n                /* \"#utility.yul\":7521:7587   */\n              swap1\n              pop\n                /* \"#utility.yul\":7451:7593   */\n              swap2\n              swap1\n              pop\n              jump\t// out\n                /* \"#utility.yul\":7599:7674   */\n            tag_64:\n                /* \"#utility.yul\":7642:7645   */\n              0x00\n                /* \"#utility.yul\":7663:7668   */\n              dup2\n                /* \"#utility.yul\":7656:7668   */\n              swap1\n              pop\n                /* \"#utility.yul\":7599:7674   */\n              swap2\n              swap1\n              pop\n              jump\t// out\n                /* \"#utility.yul\":7680:7949   */\n            tag_65:\n                /* \"#utility.yul\":7790:7829   */\n              tag_164\n                /* \"#utility.yul\":7821:7828   */\n              dup4\n                /* \"#utility.yul\":7790:7829   */\n              tag_63\n              jump\t// in\n            tag_164:\n                /* \"#utility.yul\":7851:7942   */\n              tag_165\n                /* \"#utility.yul\":7900:7941   */\n              tag_166\n                /* \"#utility.yul\":7924:7940   */\n              dup3\n                /* \"#utility.yul\":7900:7941   */\n              tag_64\n              jump\t// in\n            tag_166:\n                /* \"#utility.yul\":7892:7898   */\n              dup5\n                /* \"#utility.yul\":7885:7889   */\n              dup5\n                /* \"#utility.yul\":7879:7890   */\n              sload\n                /* \"#utility.yul\":7851:7942   */\n              tag_61\n              jump\t// in\n            tag_165:\n                /* \"#utility.yul\":7845:7849   */\n              dup3\n                /* \"#utility.yul\":7838:7943   */\n              sstore\n                /* \"#utility.yul\":7756:7949   */\n              pop\n                /* \"#utility.yul\":7680:7949   */\n              pop\n              pop\n              pop\n              jump\t// out\n                /* \"#utility.yul\":7955:8028   */\n            tag_66:\n                /* \"#utility.yul\":8000:8003   */\n              0x00\n                /* \"#utility.yul\":7955:8028   */\n              swap1\n              jump\t// out\n                /* \"#utility.yul\":8034:8223   */\n            tag_67:\n                /* \"#utility.yul\":8111:8143   */\n              tag_169\n              tag_66\n              jump\t// in\n            tag_169:\n                /* \"#utility.yul\":8152:8217   */\n              tag_170\n                /* \"#utility.yul\":8210:8216   */\n              dup2\n                /* \"#utility.yul\":8202:8208   */\n              dup5\n                /* \"#utility.yul\":8196:8200   */\n              dup5\n                /* \"#utility.yul\":8152:8217   */\n              tag_65\n              jump\t// in\n            tag_170:\n                /* \"#utility.yul\":8087:8223   */\n              pop\n                /* \"#utility.yul\":8034:8223   */\n              pop\n              pop\n              jump\t// out\n                /* \"#utility.yul\":8229:8415   */\n            tag_68:\n                /* \"#utility.yul\":8289:8409   */\n            tag_172:\n                /* \"#utility.yul\":8306:8309   */\n              dup2\n                /* \"#utility.yul\":8299:8304   */\n              dup2\n                /* \"#utility.yul\":8296:8310   */\n              lt\n                /* \"#utility.yul\":8289:8409   */\n              iszero\n              tag_174\n              jumpi\n                /* \"#utility.yul\":8360:8399   */\n              tag_175\n                /* \"#utility.yul\":8397:8398   */\n              0x00\n                /* \"#utility.yul\":8390:8395   */\n              dup3\n                /* \"#utility.yul\":8360:8399   */\n              tag_67\n              jump\t// in\n            tag_175:\n                /* \"#utility.yul\":8333:8334   */\n              0x01\n                /* \"#utility.yul\":8326:8331   */\n              dup2\n                /* \"#utility.yul\":8322:8335   */\n              add\n                /* \"#utility.yul\":8313:8335   */\n              swap1\n              pop\n                /* \"#utility.yul\":8289:8409   */\n              jump(tag_172)\n            tag_174:\n                /* \"#utility.yul\":8229:8415   */\n              pop\n              pop\n              jump\t// out\n                /* \"#utility.yul\":8421:8964   */\n            tag_69:\n                /* \"#utility.yul\":8522:8524   */\n              0x1f\n                /* \"#utility.yul\":8517:8520   */\n              dup3\n                /* \"#utility.yul\":8514:8525   */\n              gt\n                /* \"#utility.yul\":8511:8957   */\n              iszero\n              tag_177\n              jumpi\n                /* \"#utility.yul\":8556:8594   */\n              tag_178\n                /* \"#utility.yul\":8588:8593   */\n              dup2\n                /* \"#utility.yul\":8556:8594   */\n              tag_58\n              jump\t// in\n            tag_178:\n                /* \"#utility.yul\":8640:8669   */\n              tag_179\n                /* \"#utility.yul\":8658:8668   */\n              dup5\n                /* \"#utility.yul\":8640:8669   */\n              tag_59\n              jump\t// in\n            tag_179:\n                /* \"#utility.yul\":8630:8638   */\n              dup2\n                /* \"#utility.yul\":8626:8670   */\n              add\n                /* \"#utility.yul\":8823:8825   */\n              0x20\n                /* \"#utility.yul\":8811:8821   */\n              dup6\n                /* \"#utility.yul\":8808:8826   */\n              lt\n                /* \"#utility.yul\":8805:8854   */\n              iszero\n              tag_180\n              jumpi\n                /* \"#utility.yul\":8844:8852   */\n              dup2\n                /* \"#utility.yul\":8829:8852   */\n              swap1\n              pop\n                /* \"#utility.yul\":8805:8854   */\n            tag_180:\n                /* \"#utility.yul\":8867:8947   */\n              tag_181\n                /* \"#utility.yul\":8923:8945   */\n              tag_182\n                /* \"#utility.yul\":8941:8944   */\n              dup6\n                /* \"#utility.yul\":8923:8945   */\n              tag_59\n              jump\t// in\n            tag_182:\n                /* \"#utility.yul\":8913:8921   */\n              dup4\n                /* \"#utility.yul\":8909:8946   */\n              add\n                /* \"#utility.yul\":8896:8907   */\n              dup3\n                /* \"#utility.yul\":8867:8947   */\n              tag_68\n              jump\t// in\n            tag_181:\n                /* \"#utility.yul\":8526:8957   */\n              pop\n              pop\n                /* \"#utility.yul\":8511:8957   */\n            tag_177:\n                /* \"#utility.yul\":8421:8964   */\n              pop\n              pop\n              pop\n              jump\t// out\n                /* \"#utility.yul\":8970:9087   */\n            tag_70:\n                /* \"#utility.yul\":9024:9032   */\n              0x00\n                /* \"#utility.yul\":9074:9079   */\n              dup3\n                /* \"#utility.yul\":9068:9072   */\n              dup3\n                /* \"#utility.yul\":9064:9080   */\n              shr\n                /* \"#utility.yul\":9043:9080   */\n              swap1\n              pop\n                /* \"#utility.yul\":8970:9087   */\n              swap3\n              swap2\n              pop\n              pop\n              jump\t// out\n                /* \"#utility.yul\":9093:9262   */\n            tag_71:\n                /* \"#utility.yul\":9137:9143   */\n              0x00\n                /* \"#utility.yul\":9170:9221   */\n              tag_185\n                /* \"#utility.yul\":9218:9219   */\n              0x00\n                /* \"#utility.yul\":9214:9220   */\n              not\n                /* \"#utility.yul\":9206:9211   */\n              dup5\n                /* \"#utility.yul\":9203:9204   */\n              0x08\n                /* \"#utility.yul\":9199:9212   */\n              mul\n                /* \"#utility.yul\":9170:9221   */\n              tag_70\n              jump\t// in\n            tag_185:\n                /* \"#utility.yul\":9166:9222   */\n              not\n                /* \"#utility.yul\":9251:9255   */\n              dup1\n                /* \"#utility.yul\":9245:9249   */\n              dup4\n                /* \"#utility.yul\":9241:9256   */\n              and\n                /* \"#utility.yul\":9231:9256   */\n              swap2\n              pop\n                /* \"#utility.yul\":9144:9262   */\n              pop\n                /* \"#utility.yul\":9093:9262   */\n              swap3\n              swap2\n              pop\n              pop\n              jump\t// out\n                /* \"#utility.yul\":9267:9562   */\n            tag_72:\n                /* \"#utility.yul\":9343:9347   */\n              0x00\n                /* \"#utility.yul\":9489:9518   */\n              tag_187\n                /* \"#utility.yul\":9514:9517   */\n              dup4\n                /* \"#utility.yul\":9508:9512   */\n              dup4\n                /* \"#utility.yul\":9489:9518   */\n              tag_71\n              jump\t// in\n            tag_187:\n                /* \"#utility.yul\":9481:9518   */\n              swap2\n              pop\n                /* \"#utility.yul\":9551:9554   */\n              dup3\n                /* \"#utility.yul\":9548:9549   */\n              0x02\n                /* \"#utility.yul\":9544:9555   */\n              mul\n                /* \"#utility.yul\":9538:9542   */\n              dup3\n                /* \"#utility.yul\":9535:9556   */\n              or\n                /* \"#utility.yul\":9527:9556   */\n              swap1\n              pop\n                /* \"#utility.yul\":9267:9562   */\n              swap3\n              swap2\n              pop\n              pop\n              jump\t// out\n                /* \"#utility.yul\":9567:10962   */\n            tag_33:\n                /* \"#utility.yul\":9684:9721   */\n              tag_189\n                /* \"#utility.yul\":9717:9720   */\n              dup3\n                /* \"#utility.yul\":9684:9721   */\n              tag_43\n              jump\t// in\n            tag_189:\n                /* \"#utility.yul\":9786:9804   */\n              0xffffffffffffffff\n                /* \"#utility.yul\":9778:9784   */\n              dup2\n                /* \"#utility.yul\":9775:9805   */\n              gt\n                /* \"#utility.yul\":9772:9828   */\n              iszero\n              tag_190\n              jumpi\n                /* \"#utility.yul\":9808:9826   */\n              tag_191\n              tag_50\n              jump\t// in\n            tag_191:\n                /* \"#utility.yul\":9772:9828   */\n            tag_190:\n                /* \"#utility.yul\":9852:9890   */\n              tag_192\n                /* \"#utility.yul\":9884:9888   */\n              dup3\n                /* \"#utility.yul\":9878:9889   */\n              sload\n                /* \"#utility.yul\":9852:9890   */\n              tag_25\n              jump\t// in\n            tag_192:\n                /* \"#utility.yul\":9937:10004   */\n              tag_193\n                /* \"#utility.yul\":9997:10003   */\n              dup3\n                /* \"#utility.yul\":9989:9995   */\n              dup3\n                /* \"#utility.yul\":9983:9987   */\n              dup6\n                /* \"#utility.yul\":9937:10004   */\n              tag_69\n              jump\t// in\n            tag_193:\n                /* \"#utility.yul\":10031:10032   */\n              0x00\n                /* \"#utility.yul\":10055:10059   */\n              0x20\n                /* \"#utility.yul\":10042:10059   */\n              swap1\n              pop\n                /* \"#utility.yul\":10087:10089   */\n              0x1f\n                /* \"#utility.yul\":10079:10085   */\n              dup4\n                /* \"#utility.yul\":10076:10090   */\n              gt\n                /* \"#utility.yul\":10104:10105   */\n              0x01\n                /* \"#utility.yul\":10099:10717   */\n              dup2\n              eq\n              tag_195\n              jumpi\n                /* \"#utility.yul\":10761:10762   */\n              0x00\n                /* \"#utility.yul\":10778:10784   */\n              dup5\n                /* \"#utility.yul\":10775:10852   */\n              iszero\n              tag_196\n              jumpi\n                /* \"#utility.yul\":10827:10836   */\n              dup3\n                /* \"#utility.yul\":10822:10825   */\n              dup8\n                /* \"#utility.yul\":10818:10837   */\n              add\n                /* \"#utility.yul\":10812:10838   */\n              mload\n                /* \"#utility.yul\":10803:10838   */\n              swap1\n              pop\n                /* \"#utility.yul\":10775:10852   */\n            tag_196:\n                /* \"#utility.yul\":10878:10945   */\n              tag_197\n                /* \"#utility.yul\":10938:10944   */\n              dup6\n                /* \"#utility.yul\":10931:10936   */\n              dup3\n                /* \"#utility.yul\":10878:10945   */\n              tag_72\n              jump\t// in\n            tag_197:\n                /* \"#utility.yul\":10872:10876   */\n              dup7\n                /* \"#utility.yul\":10865:10946   */\n              sstore\n                /* \"#utility.yul\":10734:10956   */\n              pop\n                /* \"#utility.yul\":10069:10956   */\n              jump(tag_194)\n                /* \"#utility.yul\":10099:10717   */\n            tag_195:\n                /* \"#utility.yul\":10151:10155   */\n              0x1f\n                /* \"#utility.yul\":10147:10156   */\n              not\n                /* \"#utility.yul\":10139:10145   */\n              dup5\n                /* \"#utility.yul\":10135:10157   */\n              and\n                /* \"#utility.yul\":10185:10222   */\n              tag_198\n                /* \"#utility.yul\":10217:10221   */\n              dup7\n                /* \"#utility.yul\":10185:10222   */\n              tag_58\n              jump\t// in\n            tag_198:\n                /* \"#utility.yul\":10244:10245   */\n              0x00\n                /* \"#utility.yul\":10258:10466   */\n            tag_199:\n                /* \"#utility.yul\":10272:10279   */\n              dup3\n                /* \"#utility.yul\":10269:10270   */\n              dup2\n                /* \"#utility.yul\":10266:10280   */\n              lt\n                /* \"#utility.yul\":10258:10466   */\n              iszero\n              tag_201\n              jumpi\n                /* \"#utility.yul\":10351:10360   */\n              dup5\n                /* \"#utility.yul\":10346:10349   */\n              dup10\n                /* \"#utility.yul\":10342:10361   */\n              add\n                /* \"#utility.yul\":10336:10362   */\n              mload\n                /* \"#utility.yul\":10328:10334   */\n              dup3\n                /* \"#utility.yul\":10321:10363   */\n              sstore\n                /* \"#utility.yul\":10402:10403   */\n              0x01\n                /* \"#utility.yul\":10394:10400   */\n              dup3\n                /* \"#utility.yul\":10390:10404   */\n              add\n                /* \"#utility.yul\":10380:10404   */\n              swap2\n              pop\n                /* \"#utility.yul\":10449:10451   */\n              0x20\n                /* \"#utility.yul\":10438:10447   */\n              dup6\n                /* \"#utility.yul\":10434:10452   */\n              add\n                /* \"#utility.yul\":10421:10452   */\n              swap5\n              pop\n                /* \"#utility.yul\":10295:10299   */\n              0x20\n                /* \"#utility.yul\":10292:10293   */\n              dup2\n                /* \"#utility.yul\":10288:10300   */\n              add\n                /* \"#utility.yul\":10283:10300   */\n              swap1\n              pop\n                /* \"#utility.yul\":10258:10466   */\n              jump(tag_199)\n            tag_201:\n                /* \"#utility.yul\":10494:10500   */\n              dup7\n                /* \"#utility.yul\":10485:10492   */\n              dup4\n                /* \"#utility.yul\":10482:10501   */\n              lt\n                /* \"#utility.yul\":10479:10658   */\n              iszero\n              tag_202\n              jumpi\n                /* \"#utility.yul\":10552:10561   */\n              dup5\n                /* \"#utility.yul\":10547:10550   */\n              dup10\n                /* \"#utility.yul\":10543:10562   */\n              add\n                /* \"#utility.yul\":10537:10563   */\n              mload\n                /* \"#utility.yul\":10595:10643   */\n              tag_203\n                /* \"#utility.yul\":10637:10641   */\n              0x1f\n                /* \"#utility.yul\":10629:10635   */\n              dup10\n                /* \"#utility.yul\":10625:10642   */\n              and\n                /* \"#utility.yul\":10614:10623   */\n              dup3\n                /* \"#utility.yul\":10595:10643   */\n              tag_71\n              jump\t// in\n            tag_203:\n                /* \"#utility.yul\":10587:10593   */\n              dup4\n                /* \"#utility.yul\":10580:10644   */\n              sstore\n                /* \"#utility.yul\":10502:10658   */\n              pop\n                /* \"#utility.yul\":10479:10658   */\n            tag_202:\n                /* \"#utility.yul\":10704:10705   */\n              0x01\n                /* \"#utility.yul\":10700:10701   */\n              0x02\n                /* \"#utility.yul\":10692:10698   */\n              dup9\n                /* \"#utility.yul\":10688:10702   */\n              mul\n                /* \"#utility.yul\":10684:10706   */\n              add\n                /* \"#utility.yul\":10678:10682   */\n              dup9\n                /* \"#utility.yul\":10671:10707   */\n              sstore\n                /* \"#utility.yul\":10106:10717   */\n              pop\n              pop\n              pop\n                /* \"#utility.yul\":10069:10956   */\n            tag_194:\n              pop\n                /* \"#utility.yul\":9659:10962   */\n              pop\n              pop\n              pop\n                /* \"#utility.yul\":9567:10962   */\n              pop\n              pop\n              jump\t// out\n                /* \"#utility.yul\":10968:11116   */\n            tag_73:\n                /* \"#utility.yul\":11070:11081   */\n              0x00\n                /* \"#utility.yul\":11107:11110   */\n              dup2\n                /* \"#utility.yul\":11092:11110   */\n              swap1\n              pop\n                /* \"#utility.yul\":10968:11116   */\n              swap3\n              swap2\n              pop\n              pop\n              jump\t// out\n                /* \"#utility.yul\":11122:11512   */\n            tag_74:\n                /* \"#utility.yul\":11228:11231   */\n              0x00\n                /* \"#utility.yul\":11256:11295   */\n              tag_206\n                /* \"#utility.yul\":11289:11294   */\n              dup3\n                /* \"#utility.yul\":11256:11295   */\n              tag_43\n              jump\t// in\n            tag_206:\n                /* \"#utility.yul\":11311:11400   */\n              tag_207\n                /* \"#utility.yul\":11393:11399   */\n              dup2\n                /* \"#utility.yul\":11388:11391   */\n              dup6\n                /* \"#utility.yul\":11311:11400   */\n              tag_73\n              jump\t// in\n            tag_207:\n                /* \"#utility.yul\":11304:11400   */\n              swap4\n              pop\n                /* \"#utility.yul\":11409:11474   */\n              tag_208\n                /* \"#utility.yul\":11467:11473   */\n              dup2\n                /* \"#utility.yul\":11462:11465   */\n              dup6\n                /* \"#utility.yul\":11455:11459   */\n              0x20\n                /* \"#utility.yul\":11448:11453   */\n              dup7\n                /* \"#utility.yul\":11444:11460   */\n              add\n                /* \"#utility.yul\":11409:11474   */\n              tag_45\n              jump\t// in\n            tag_208:\n                /* \"#utility.yul\":11499:11505   */\n              dup1\n                /* \"#utility.yul\":11494:11497   */\n              dup5\n                /* \"#utility.yul\":11490:11506   */\n              add\n                /* \"#utility.yul\":11483:11506   */\n              swap2\n              pop\n                /* \"#utility.yul\":11232:11512   */\n              pop\n                /* \"#utility.yul\":11122:11512   */\n              swap3\n              swap2\n              pop\n              pop\n              jump\t// out\n                /* \"#utility.yul\":11518:11793   */\n            tag_35:\n                /* \"#utility.yul\":11650:11653   */\n              0x00\n                /* \"#utility.yul\":11672:11767   */\n              tag_210\n                /* \"#utility.yul\":11763:11766   */\n              dup3\n                /* \"#utility.yul\":11754:11760   */\n              dup5\n                /* \"#utility.yul\":11672:11767   */\n              tag_74\n              jump\t// in\n            tag_210:\n                /* \"#utility.yul\":11665:11767   */\n              swap2\n              pop\n                /* \"#utility.yul\":11784:11787   */\n              dup2\n                /* \"#utility.yul\":11777:11787   */\n              swap1\n              pop\n                /* \"#utility.yul\":11518:11793   */\n              swap3\n              swap2\n              pop\n              pop\n              jump\t// out\n\n            auxdata: 0xa264697066735822122039f4cdfede2d607018b7a8cbe69bca50f66ca7bb40f437fe1fdbe2f5f3745dc964736f6c63430008160033\n        }\n    }\n\n    auxdata: 0xa26469706673582212209965c66ed3d5aee0889303bee48b3ef59669609980c8b479e4d59b41ce92d80a64736f6c63430008160033\n}\n",
				"bytecode": {
					"linkReferences": {},
					"object": "608060405234801561000f575f80fd5b506110458061001d5f395ff3fe608060405234801561000f575f80fd5b506004361061004a575f3560e01c806340d66b3b1461004e5780634dcf94f31461005857806364591bf1146100885780636768a7e9146100b8575b5f80fd5b6100566100d4565b005b610072600480360381019061006d9190610483565b61015a565b60405161007f91906104ec565b60405180910390f35b6100a2600480360381019061009d9190610505565b610215565b6040516100af91906105aa565b60405180910390f35b6100d260048036038101906100cd91906105c3565b61024f565b005b5f6040516100e1906102f6565b604051809103905ff0801580156100fa573d5f803e3d5ffd5b50908060018154018082558091505060019003905f5260205f20015f9091909190916101000a81548173ffffffffffffffffffffffffffffffffffffffff021916908373ffffffffffffffffffffffffffffffffffffffff160217905550565b5f80838154811061016e5761016d61062f565b5b905f5260205f20015f9054906101000a900473ffffffffffffffffffffffffffffffffffffffff1673ffffffffffffffffffffffffffffffffffffffff166395679e46836040518263ffffffff1660e01b81526004016101ce91906106d6565b602060405180830381865afa1580156101e9573d5f803e3d5ffd5b505050506040513d601f19601f8201168201806040525081019061020d919061070a565b905092915050565b5f8181548110610223575f80fd5b905f5260205f20015f915054906101000a900473ffffffffffffffffffffffffffffffffffffffff1681565b5f83815481106102625761026161062f565b5b905f5260205f20015f9054906101000a900473ffffffffffffffffffffffffffffffffffffffff1673ffffffffffffffffffffffffffffffffffffffff1663bc832d4e83836040518363ffffffff1660e01b81526004016102c4929190610735565b5f604051808303815f87803b1580156102db575f80fd5b505af11580156102ed573d5f803e3d5ffd5b50505050505050565b6108ac8061076483390190565b5f604051905090565b5f80fd5b5f80fd5b5f819050919050565b61032681610314565b8114610330575f80fd5b50565b5f813590506103418161031d565b92915050565b5f80fd5b5f80fd5b5f601f19601f8301169050919050565b7f4e487b71000000000000000000000000000000000000000000000000000000005f52604160045260245ffd5b6103958261034f565b810181811067ffffffffffffffff821117156103b4576103b361035f565b5b80604052505050565b5f6103c6610303565b90506103d2828261038c565b919050565b5f67ffffffffffffffff8211156103f1576103f061035f565b5b6103fa8261034f565b9050602081019050919050565b828183375f83830152505050565b5f610427610422846103d7565b6103bd565b9050828152602081018484840111156104435761044261034b565b5b61044e848285610407565b509392505050565b5f82601f83011261046a57610469610347565b5b813561047a848260208601610415565b91505092915050565b5f80604083850312156104995761049861030c565b5b5f6104a685828601610333565b925050602083013567ffffffffffffffff8111156104c7576104c6610310565b5b6104d385828601610456565b9150509250929050565b6104e681610314565b82525050565b5f6020820190506104ff5f8301846104dd565b92915050565b5f6020828403121561051a5761051961030c565b5b5f61052784828501610333565b91505092915050565b5f73ffffffffffffffffffffffffffffffffffffffff82169050919050565b5f819050919050565b5f61057261056d61056884610530565b61054f565b610530565b9050919050565b5f61058382610558565b9050919050565b5f61059482610579565b9050919050565b6105a48161058a565b82525050565b5f6020820190506105bd5f83018461059b565b92915050565b5f805f606084860312156105da576105d961030c565b5b5f6105e786828701610333565b93505060206105f886828701610333565b925050604084013567ffffffffffffffff81111561061957610618610310565b5b61062586828701610456565b9150509250925092565b7f4e487b71000000000000000000000000000000000000000000000000000000005f52603260045260245ffd5b5f81519050919050565b5f82825260208201905092915050565b5f5b83811015610693578082015181840152602081019050610678565b5f8484015250505050565b5f6106a88261065c565b6106b28185610666565b93506106c2818560208601610676565b6106cb8161034f565b840191505092915050565b5f6020820190508181035f8301526106ee818461069e565b905092915050565b5f815190506107048161031d565b92915050565b5f6020828403121561071f5761071e61030c565b5b5f61072c848285016106f6565b91505092915050565b5f6040820190506107485f8301856104dd565b818103602083015261075a818461069e565b9050939250505056fe608060405234801561000f575f80fd5b5061088f8061001d5f395ff3fe608060405234801561000f575f80fd5b506004361061003f575f3560e01c8063092a18201461004357806395679e4614610074578063bc832d4e146100a4575b5f80fd5b61005d60048036038101906100589190610268565b6100c0565b60405161006b92919061032c565b60405180910390f35b61008e60048036038101906100899190610486565b610174565b60405161009b91906104cd565b60405180910390f35b6100be60048036038101906100b991906104e6565b6101a1565b005b5f81815481106100ce575f80fd5b905f5260205f2090600202015f91509050805f0154908060010180546100f39061056d565b80601f016020809104026020016040519081016040528092919081815260200182805461011f9061056d565b801561016a5780601f106101415761010080835404028352916020019161016a565b820191905f5260205f20905b81548152906001019060200180831161014d57829003601f168201915b5050505050905082565b6001818051602081018201805184825260208301602085012081835280955050505050505f915090505481565b5f604051806040016040528084815260200183815250908060018154018082558091505060019003905f5260205f2090600202015f909190919091505f820151815f015560208201518160010190816101fa919061073a565b5050508160018260405161020e9190610843565b9081526020016040518091039020819055505050565b5f604051905090565b5f80fd5b5f80fd5b5f819050919050565b61024781610235565b8114610251575f80fd5b50565b5f813590506102628161023e565b92915050565b5f6020828403121561027d5761027c61022d565b5b5f61028a84828501610254565b91505092915050565b61029c81610235565b82525050565b5f81519050919050565b5f82825260208201905092915050565b5f5b838110156102d95780820151818401526020810190506102be565b5f8484015250505050565b5f601f19601f8301169050919050565b5f6102fe826102a2565b61030881856102ac565b93506103188185602086016102bc565b610321816102e4565b840191505092915050565b5f60408201905061033f5f830185610293565b818103602083015261035181846102f4565b90509392505050565b5f80fd5b5f80fd5b7f4e487b71000000000000000000000000000000000000000000000000000000005f52604160045260245ffd5b610398826102e4565b810181811067ffffffffffffffff821117156103b7576103b6610362565b5b80604052505050565b5f6103c9610224565b90506103d5828261038f565b919050565b5f67ffffffffffffffff8211156103f4576103f3610362565b5b6103fd826102e4565b9050602081019050919050565b828183375f83830152505050565b5f61042a610425846103da565b6103c0565b9050828152602081018484840111156104465761044561035e565b5b61045184828561040a565b509392505050565b5f82601f83011261046d5761046c61035a565b5b813561047d848260208601610418565b91505092915050565b5f6020828403121561049b5761049a61022d565b5b5f82013567ffffffffffffffff8111156104b8576104b7610231565b5b6104c484828501610459565b91505092915050565b5f6020820190506104e05f830184610293565b92915050565b5f80604083850312156104fc576104fb61022d565b5b5f61050985828601610254565b925050602083013567ffffffffffffffff81111561052a57610529610231565b5b61053685828601610459565b9150509250929050565b7f4e487b71000000000000000000000000000000000000000000000000000000005f52602260045260245ffd5b5f600282049050600182168061058457607f821691505b60208210810361059757610596610540565b5b50919050565b5f819050815f5260205f209050919050565b5f6020601f8301049050919050565b5f82821b905092915050565b5f600883026105f97fffffffffffffffffffffffffffffffffffffffffffffffffffffffffffffffff826105be565b61060386836105be565b95508019841693508086168417925050509392505050565b5f819050919050565b5f61063e61063961063484610235565b61061b565b610235565b9050919050565b5f819050919050565b61065783610624565b61066b61066382610645565b8484546105ca565b825550505050565b5f90565b61067f610673565b61068a81848461064e565b505050565b5b818110156106ad576106a25f82610677565b600181019050610690565b5050565b601f8211156106f2576106c38161059d565b6106cc846105af565b810160208510156106db578190505b6106ef6106e7856105af565b83018261068f565b50505b505050565b5f82821c905092915050565b5f6107125f19846008026106f7565b1980831691505092915050565b5f61072a8383610703565b9150826002028217905092915050565b610743826102a2565b67ffffffffffffffff81111561075c5761075b610362565b5b610766825461056d565b6107718282856106b1565b5f60209050601f8311600181146107a2575f8415610790578287015190505b61079a858261071f565b865550610801565b601f1984166107b08661059d565b5f5b828110156107d7578489015182556001820191506020850194506020810190506107b2565b868310156107f457848901516107f0601f891682610703565b8355505b6001600288020188555050505b505050505050565b5f81905092915050565b5f61081d826102a2565b6108278185610809565b93506108378185602086016102bc565b80840191505092915050565b5f61084e8284610813565b91508190509291505056fea264697066735822122039f4cdfede2d607018b7a8cbe69bca50f66ca7bb40f437fe1fdbe2f5f3745dc964736f6c63430008160033a26469706673582212209965c66ed3d5aee0889303bee48b3ef59669609980c8b479e4d59b41ce92d80a64736f6c63430008160033",
					"opcodes": "PUSH1 0x80 PUSH1 0x40 MSTORE CALLVALUE DUP1 ISZERO PUSH2 0xF JUMPI PUSH0 DUP1 REVERT JUMPDEST POP PUSH2 0x1045 DUP1 PUSH2 0x1D PUSH0 CODECOPY PUSH0 RETURN INVALID PUSH1 0x80 PUSH1 0x40 MSTORE CALLVALUE DUP1 ISZERO PUSH2 0xF JUMPI PUSH0 DUP1 REVERT JUMPDEST POP PUSH1 0x4 CALLDATASIZE LT PUSH2 0x4A JUMPI PUSH0 CALLDATALOAD PUSH1 0xE0 SHR DUP1 PUSH4 0x40D66B3B EQ PUSH2 0x4E JUMPI DUP1 PUSH4 0x4DCF94F3 EQ PUSH2 0x58 JUMPI DUP1 PUSH4 0x64591BF1 EQ PUSH2 0x88 JUMPI DUP1 PUSH4 0x6768A7E9 EQ PUSH2 0xB8 JUMPI JUMPDEST PUSH0 DUP1 REVERT JUMPDEST PUSH2 0x56 PUSH2 0xD4 JUMP JUMPDEST STOP JUMPDEST PUSH2 0x72 PUSH1 0x4 DUP1 CALLDATASIZE SUB DUP2 ADD SWAP1 PUSH2 0x6D SWAP2 SWAP1 PUSH2 0x483 JUMP JUMPDEST PUSH2 0x15A JUMP JUMPDEST PUSH1 0x40 MLOAD PUSH2 0x7F SWAP2 SWAP1 PUSH2 0x4EC JUMP JUMPDEST PUSH1 0x40 MLOAD DUP1 SWAP2 SUB SWAP1 RETURN JUMPDEST PUSH2 0xA2 PUSH1 0x4 DUP1 CALLDATASIZE SUB DUP2 ADD SWAP1 PUSH2 0x9D SWAP2 SWAP1 PUSH2 0x505 JUMP JUMPDEST PUSH2 0x215 JUMP JUMPDEST PUSH1 0x40 MLOAD PUSH2 0xAF SWAP2 SWAP1 PUSH2 0x5AA JUMP JUMPDEST PUSH1 0x40 MLOAD DUP1 SWAP2 SUB SWAP1 RETURN JUMPDEST PUSH2 0xD2 PUSH1 0x4 DUP1 CALLDATASIZE SUB DUP2 ADD SWAP1 PUSH2 0xCD SWAP2 SWAP1 PUSH2 0x5C3 JUMP JUMPDEST PUSH2 0x24F JUMP JUMPDEST STOP JUMPDEST PUSH0 PUSH1 0x40 MLOAD PUSH2 0xE1 SWAP1 PUSH2 0x2F6 JUMP JUMPDEST PUSH1 0x40 MLOAD DUP1 SWAP2 SUB SWAP1 PUSH0 CREATE DUP1 ISZERO DUP1 ISZERO PUSH2 0xFA JUMPI RETURNDATASIZE PUSH0 DUP1 RETURNDATACOPY RETURNDATASIZE PUSH0 REVERT JUMPDEST POP SWAP1 DUP1 PUSH1 0x1 DUP2 SLOAD ADD DUP1 DUP3 SSTORE DUP1 SWAP2 POP POP PUSH1 0x1 SWAP1 SUB SWAP1 PUSH0 MSTORE PUSH1 0x20 PUSH0 KECCAK256 ADD PUSH0 SWAP1 SWAP2 SWAP1 SWAP2 SWAP1 SWAP2 PUSH2 0x100 EXP DUP2 SLOAD DUP2 PUSH20 0xFFFFFFFFFFFFFFFFFFFFFFFFFFFFFFFFFFFFFFFF MUL NOT AND SWAP1 DUP4 PUSH20 0xFFFFFFFFFFFFFFFFFFFFFFFFFFFFFFFFFFFFFFFF AND MUL OR SWAP1 SSTORE POP JUMP JUMPDEST PUSH0 DUP1 DUP4 DUP2 SLOAD DUP2 LT PUSH2 0x16E JUMPI PUSH2 0x16D PUSH2 0x62F JUMP JUMPDEST JUMPDEST SWAP1 PUSH0 MSTORE PUSH1 0x20 PUSH0 KECCAK256 ADD PUSH0 SWAP1 SLOAD SWAP1 PUSH2 0x100 EXP SWAP1 DIV PUSH20 0xFFFFFFFFFFFFFFFFFFFFFFFFFFFFFFFFFFFFFFFF AND PUSH20 0xFFFFFFFFFFFFFFFFFFFFFFFFFFFFFFFFFFFFFFFF AND PUSH4 0x95679E46 DUP4 PUSH1 0x40 MLOAD DUP3 PUSH4 0xFFFFFFFF AND PUSH1 0xE0 SHL DUP2 MSTORE PUSH1 0x4 ADD PUSH2 0x1CE SWAP2 SWAP1 PUSH2 0x6D6 JUMP JUMPDEST PUSH1 0x20 PUSH1 0x40 MLOAD DUP1 DUP4 SUB DUP2 DUP7 GAS STATICCALL ISZERO DUP1 ISZERO PUSH2 0x1E9 JUMPI RETURNDATASIZE PUSH0 DUP1 RETURNDATACOPY RETURNDATASIZE PUSH0 REVERT JUMPDEST POP POP POP POP PUSH1 0x40 MLOAD RETURNDATASIZE PUSH1 0x1F NOT PUSH1 0x1F DUP3 ADD AND DUP3 ADD DUP1 PUSH1 0x40 MSTORE POP DUP2 ADD SWAP1 PUSH2 0x20D SWAP2 SWAP1 PUSH2 0x70A JUMP JUMPDEST SWAP1 POP SWAP3 SWAP2 POP POP JUMP JUMPDEST PUSH0 DUP2 DUP2 SLOAD DUP2 LT PUSH2 0x223 JUMPI PUSH0 DUP1 REVERT JUMPDEST SWAP1 PUSH0 MSTORE PUSH1 0x20 PUSH0 KECCAK256 ADD PUSH0 SWAP2 POP SLOAD SWAP1 PUSH2 0x100 EXP SWAP1 DIV PUSH20 0xFFFFFFFFFFFFFFFFFFFFFFFFFFFFFFFFFFFFFFFF AND DUP2 JUMP JUMPDEST PUSH0 DUP4 DUP2 SLOAD DUP2 LT PUSH2 0x262 JUMPI PUSH2 0x261 PUSH2 0x62F JUMP JUMPDEST JUMPDEST SWAP1 PUSH0 MSTORE PUSH1 0x20 PUSH0 KECCAK256 ADD PUSH0 SWAP1 SLOAD SWAP1 PUSH2 0x100 EXP SWAP1 DIV PUSH20 0xFFFFFFFFFFFFFFFFFFFFFFFFFFFFFFFFFFFFFFFF AND PUSH20 0xFFFFFFFFFFFFFFFFFFFFFFFFFFFFFFFFFFFFFFFF AND PUSH4 0xBC832D4E DUP4 DUP4 PUSH1 0x40 MLOAD DUP4 PUSH4 0xFFFFFFFF AND PUSH1 0xE0 SHL DUP2 MSTORE PUSH1 0x4 ADD PUSH2 0x2C4 SWAP3 SWAP2 SWAP1 PUSH2 0x735 JUMP JUMPDEST PUSH0 PUSH1 0x40 MLOAD DUP1 DUP4 SUB DUP2 PUSH0 DUP8 DUP1 EXTCODESIZE ISZERO DUP1 ISZERO PUSH2 0x2DB JUMPI PUSH0 DUP1 REVERT JUMPDEST POP GAS CALL ISZERO DUP1 ISZERO PUSH2 0x2ED JUMPI RETURNDATASIZE PUSH0 DUP1 RETURNDATACOPY RETURNDATASIZE PUSH0 REVERT JUMPDEST POP POP POP POP POP POP POP JUMP JUMPDEST PUSH2 0x8AC DUP1 PUSH2 0x764 DUP4 CODECOPY ADD SWAP1 JUMP JUMPDEST PUSH0 PUSH1 0x40 MLOAD SWAP1 POP SWAP1 JUMP JUMPDEST PUSH0 DUP1 REVERT JUMPDEST PUSH0 DUP1 REVERT JUMPDEST PUSH0 DUP2 SWAP1 POP SWAP2 SWAP1 POP JUMP JUMPDEST PUSH2 0x326 DUP2 PUSH2 0x314 JUMP JUMPDEST DUP2 EQ PUSH2 0x330 JUMPI PUSH0 DUP1 REVERT JUMPDEST POP JUMP JUMPDEST PUSH0 DUP2 CALLDATALOAD SWAP1 POP PUSH2 0x341 DUP2 PUSH2 0x31D JUMP JUMPDEST SWAP3 SWAP2 POP POP JUMP JUMPDEST PUSH0 DUP1 REVERT JUMPDEST PUSH0 DUP1 REVERT JUMPDEST PUSH0 PUSH1 0x1F NOT PUSH1 0x1F DUP4 ADD AND SWAP1 POP SWAP2 SWAP1 POP JUMP JUMPDEST PUSH32 0x4E487B7100000000000000000000000000000000000000000000000000000000 PUSH0 MSTORE PUSH1 0x41 PUSH1 0x4 MSTORE PUSH1 0x24 PUSH0 REVERT JUMPDEST PUSH2 0x395 DUP3 PUSH2 0x34F JUMP JUMPDEST DUP2 ADD DUP2 DUP2 LT PUSH8 0xFFFFFFFFFFFFFFFF DUP3 GT OR ISZERO PUSH2 0x3B4 JUMPI PUSH2 0x3B3 PUSH2 0x35F JUMP JUMPDEST JUMPDEST DUP1 PUSH1 0x40 MSTORE POP POP POP JUMP JUMPDEST PUSH0 PUSH2 0x3C6 PUSH2 0x303 JUMP JUMPDEST SWAP1 POP PUSH2 0x3D2 DUP3 DUP3 PUSH2 0x38C JUMP JUMPDEST SWAP2 SWAP1 POP JUMP JUMPDEST PUSH0 PUSH8 0xFFFFFFFFFFFFFFFF DUP3 GT ISZERO PUSH2 0x3F1 JUMPI PUSH2 0x3F0 PUSH2 0x35F JUMP JUMPDEST JUMPDEST PUSH2 0x3FA DUP3 PUSH2 0x34F JUMP JUMPDEST SWAP1 POP PUSH1 0x20 DUP2 ADD SWAP1 POP SWAP2 SWAP1 POP JUMP JUMPDEST DUP3 DUP2 DUP4 CALLDATACOPY PUSH0 DUP4 DUP4 ADD MSTORE POP POP POP JUMP JUMPDEST PUSH0 PUSH2 0x427 PUSH2 0x422 DUP5 PUSH2 0x3D7 JUMP JUMPDEST PUSH2 0x3BD JUMP JUMPDEST SWAP1 POP DUP3 DUP2 MSTORE PUSH1 0x20 DUP2 ADD DUP5 DUP5 DUP5 ADD GT ISZERO PUSH2 0x443 JUMPI PUSH2 0x442 PUSH2 0x34B JUMP JUMPDEST JUMPDEST PUSH2 0x44E DUP5 DUP3 DUP6 PUSH2 0x407 JUMP JUMPDEST POP SWAP4 SWAP3 POP POP POP JUMP JUMPDEST PUSH0 DUP3 PUSH1 0x1F DUP4 ADD SLT PUSH2 0x46A JUMPI PUSH2 0x469 PUSH2 0x347 JUMP JUMPDEST JUMPDEST DUP2 CALLDATALOAD PUSH2 0x47A DUP5 DUP3 PUSH1 0x20 DUP7 ADD PUSH2 0x415 JUMP JUMPDEST SWAP2 POP POP SWAP3 SWAP2 POP POP JUMP JUMPDEST PUSH0 DUP1 PUSH1 0x40 DUP4 DUP6 SUB SLT ISZERO PUSH2 0x499 JUMPI PUSH2 0x498 PUSH2 0x30C JUMP JUMPDEST JUMPDEST PUSH0 PUSH2 0x4A6 DUP6 DUP3 DUP7 ADD PUSH2 0x333 JUMP JUMPDEST SWAP3 POP POP PUSH1 0x20 DUP4 ADD CALLDATALOAD PUSH8 0xFFFFFFFFFFFFFFFF DUP2 GT ISZERO PUSH2 0x4C7 JUMPI PUSH2 0x4C6 PUSH2 0x310 JUMP JUMPDEST JUMPDEST PUSH2 0x4D3 DUP6 DUP3 DUP7 ADD PUSH2 0x456 JUMP JUMPDEST SWAP2 POP POP SWAP3 POP SWAP3 SWAP1 POP JUMP JUMPDEST PUSH2 0x4E6 DUP2 PUSH2 0x314 JUMP JUMPDEST DUP3 MSTORE POP POP JUMP JUMPDEST PUSH0 PUSH1 0x20 DUP3 ADD SWAP1 POP PUSH2 0x4FF PUSH0 DUP4 ADD DUP5 PUSH2 0x4DD JUMP JUMPDEST SWAP3 SWAP2 POP POP JUMP JUMPDEST PUSH0 PUSH1 0x20 DUP3 DUP5 SUB SLT ISZERO PUSH2 0x51A JUMPI PUSH2 0x519 PUSH2 0x30C JUMP JUMPDEST JUMPDEST PUSH0 PUSH2 0x527 DUP5 DUP3 DUP6 ADD PUSH2 0x333 JUMP JUMPDEST SWAP2 POP POP SWAP3 SWAP2 POP POP JUMP JUMPDEST PUSH0 PUSH20 0xFFFFFFFFFFFFFFFFFFFFFFFFFFFFFFFFFFFFFFFF DUP3 AND SWAP1 POP SWAP2 SWAP1 POP JUMP JUMPDEST PUSH0 DUP2 SWAP1 POP SWAP2 SWAP1 POP JUMP JUMPDEST PUSH0 PUSH2 0x572 PUSH2 0x56D PUSH2 0x568 DUP5 PUSH2 0x530 JUMP JUMPDEST PUSH2 0x54F JUMP JUMPDEST PUSH2 0x530 JUMP JUMPDEST SWAP1 POP SWAP2 SWAP1 POP JUMP JUMPDEST PUSH0 PUSH2 0x583 DUP3 PUSH2 0x558 JUMP JUMPDEST SWAP1 POP SWAP2 SWAP1 POP JUMP JUMPDEST PUSH0 PUSH2 0x594 DUP3 PUSH2 0x579 JUMP JUMPDEST SWAP1 POP SWAP2 SWAP1 POP JUMP JUMPDEST PUSH2 0x5A4 DUP2 PUSH2 0x58A JUMP JUMPDEST DUP3 MSTORE POP POP JUMP JUMPDEST PUSH0 PUSH1 0x20 DUP3 ADD SWAP1 POP PUSH2 0x5BD PUSH0 DUP4 ADD DUP5 PUSH2 0x59B JUMP JUMPDEST SWAP3 SWAP2 POP POP JUMP JUMPDEST PUSH0 DUP1 PUSH0 PUSH1 0x60 DUP5 DUP7 SUB SLT ISZERO PUSH2 0x5DA JUMPI PUSH2 0x5D9 PUSH2 0x30C JUMP JUMPDEST JUMPDEST PUSH0 PUSH2 0x5E7 DUP7 DUP3 DUP8 ADD PUSH2 0x333 JUMP JUMPDEST SWAP4 POP POP PUSH1 0x20 PUSH2 0x5F8 DUP7 DUP3 DUP8 ADD PUSH2 0x333 JUMP JUMPDEST SWAP3 POP POP PUSH1 0x40 DUP5 ADD CALLDATALOAD PUSH8 0xFFFFFFFFFFFFFFFF DUP2 GT ISZERO PUSH2 0x619 JUMPI PUSH2 0x618 PUSH2 0x310 JUMP JUMPDEST JUMPDEST PUSH2 0x625 DUP7 DUP3 DUP8 ADD PUSH2 0x456 JUMP JUMPDEST SWAP2 POP POP SWAP3 POP SWAP3 POP SWAP3 JUMP JUMPDEST PUSH32 0x4E487B7100000000000000000000000000000000000000000000000000000000 PUSH0 MSTORE PUSH1 0x32 PUSH1 0x4 MSTORE PUSH1 0x24 PUSH0 REVERT JUMPDEST PUSH0 DUP2 MLOAD SWAP1 POP SWAP2 SWAP1 POP JUMP JUMPDEST PUSH0 DUP3 DUP3 MSTORE PUSH1 0x20 DUP3 ADD SWAP1 POP SWAP3 SWAP2 POP POP JUMP JUMPDEST PUSH0 JUMPDEST DUP4 DUP2 LT ISZERO PUSH2 0x693 JUMPI DUP1 DUP3 ADD MLOAD DUP2 DUP5 ADD MSTORE PUSH1 0x20 DUP2 ADD SWAP1 POP PUSH2 0x678 JUMP JUMPDEST PUSH0 DUP5 DUP5 ADD MSTORE POP POP POP POP JUMP JUMPDEST PUSH0 PUSH2 0x6A8 DUP3 PUSH2 0x65C JUMP JUMPDEST PUSH2 0x6B2 DUP2 DUP6 PUSH2 0x666 JUMP JUMPDEST SWAP4 POP PUSH2 0x6C2 DUP2 DUP6 PUSH1 0x20 DUP7 ADD PUSH2 0x676 JUMP JUMPDEST PUSH2 0x6CB DUP2 PUSH2 0x34F JUMP JUMPDEST DUP5 ADD SWAP2 POP POP SWAP3 SWAP2 POP POP JUMP JUMPDEST PUSH0 PUSH1 0x20 DUP3 ADD SWAP1 POP DUP2 DUP2 SUB PUSH0 DUP4 ADD MSTORE PUSH2 0x6EE DUP2 DUP5 PUSH2 0x69E JUMP JUMPDEST SWAP1 POP SWAP3 SWAP2 POP POP JUMP JUMPDEST PUSH0 DUP2 MLOAD SWAP1 POP PUSH2 0x704 DUP2 PUSH2 0x31D JUMP JUMPDEST SWAP3 SWAP2 POP POP JUMP JUMPDEST PUSH0 PUSH1 0x20 DUP3 DUP5 SUB SLT ISZERO PUSH2 0x71F JUMPI PUSH2 0x71E PUSH2 0x30C JUMP JUMPDEST JUMPDEST PUSH0 PUSH2 0x72C DUP5 DUP3 DUP6 ADD PUSH2 0x6F6 JUMP JUMPDEST SWAP2 POP POP SWAP3 SWAP2 POP POP JUMP JUMPDEST PUSH0 PUSH1 0x40 DUP3 ADD SWAP1 POP PUSH2 0x748 PUSH0 DUP4 ADD DUP6 PUSH2 0x4DD JUMP JUMPDEST DUP2 DUP2 SUB PUSH1 0x20 DUP4 ADD MSTORE PUSH2 0x75A DUP2 DUP5 PUSH2 0x69E JUMP JUMPDEST SWAP1 POP SWAP4 SWAP3 POP POP POP JUMP INVALID PUSH1 0x80 PUSH1 0x40 MSTORE CALLVALUE DUP1 ISZERO PUSH2 0xF JUMPI PUSH0 DUP1 REVERT JUMPDEST POP PUSH2 0x88F DUP1 PUSH2 0x1D PUSH0 CODECOPY PUSH0 RETURN INVALID PUSH1 0x80 PUSH1 0x40 MSTORE CALLVALUE DUP1 ISZERO PUSH2 0xF JUMPI PUSH0 DUP1 REVERT JUMPDEST POP PUSH1 0x4 CALLDATASIZE LT PUSH2 0x3F JUMPI PUSH0 CALLDATALOAD PUSH1 0xE0 SHR DUP1 PUSH4 0x92A1820 EQ PUSH2 0x43 JUMPI DUP1 PUSH4 0x95679E46 EQ PUSH2 0x74 JUMPI DUP1 PUSH4 0xBC832D4E EQ PUSH2 0xA4 JUMPI JUMPDEST PUSH0 DUP1 REVERT JUMPDEST PUSH2 0x5D PUSH1 0x4 DUP1 CALLDATASIZE SUB DUP2 ADD SWAP1 PUSH2 0x58 SWAP2 SWAP1 PUSH2 0x268 JUMP JUMPDEST PUSH2 0xC0 JUMP JUMPDEST PUSH1 0x40 MLOAD PUSH2 0x6B SWAP3 SWAP2 SWAP1 PUSH2 0x32C JUMP JUMPDEST PUSH1 0x40 MLOAD DUP1 SWAP2 SUB SWAP1 RETURN JUMPDEST PUSH2 0x8E PUSH1 0x4 DUP1 CALLDATASIZE SUB DUP2 ADD SWAP1 PUSH2 0x89 SWAP2 SWAP1 PUSH2 0x486 JUMP JUMPDEST PUSH2 0x174 JUMP JUMPDEST PUSH1 0x40 MLOAD PUSH2 0x9B SWAP2 SWAP1 PUSH2 0x4CD JUMP JUMPDEST PUSH1 0x40 MLOAD DUP1 SWAP2 SUB SWAP1 RETURN JUMPDEST PUSH2 0xBE PUSH1 0x4 DUP1 CALLDATASIZE SUB DUP2 ADD SWAP1 PUSH2 0xB9 SWAP2 SWAP1 PUSH2 0x4E6 JUMP JUMPDEST PUSH2 0x1A1 JUMP JUMPDEST STOP JUMPDEST PUSH0 DUP2 DUP2 SLOAD DUP2 LT PUSH2 0xCE JUMPI PUSH0 DUP1 REVERT JUMPDEST SWAP1 PUSH0 MSTORE PUSH1 0x20 PUSH0 KECCAK256 SWAP1 PUSH1 0x2 MUL ADD PUSH0 SWAP2 POP SWAP1 POP DUP1 PUSH0 ADD SLOAD SWAP1 DUP1 PUSH1 0x1 ADD DUP1 SLOAD PUSH2 0xF3 SWAP1 PUSH2 0x56D JUMP JUMPDEST DUP1 PUSH1 0x1F ADD PUSH1 0x20 DUP1 SWAP2 DIV MUL PUSH1 0x20 ADD PUSH1 0x40 MLOAD SWAP1 DUP2 ADD PUSH1 0x40 MSTORE DUP1 SWAP3 SWAP2 SWAP1 DUP2 DUP2 MSTORE PUSH1 0x20 ADD DUP3 DUP1 SLOAD PUSH2 0x11F SWAP1 PUSH2 0x56D JUMP JUMPDEST DUP1 ISZERO PUSH2 0x16A JUMPI DUP1 PUSH1 0x1F LT PUSH2 0x141 JUMPI PUSH2 0x100 DUP1 DUP4 SLOAD DIV MUL DUP4 MSTORE SWAP2 PUSH1 0x20 ADD SWAP2 PUSH2 0x16A JUMP JUMPDEST DUP3 ADD SWAP2 SWAP1 PUSH0 MSTORE PUSH1 0x20 PUSH0 KECCAK256 SWAP1 JUMPDEST DUP2 SLOAD DUP2 MSTORE SWAP1 PUSH1 0x1 ADD SWAP1 PUSH1 0x20 ADD DUP1 DUP4 GT PUSH2 0x14D JUMPI DUP3 SWAP1 SUB PUSH1 0x1F AND DUP3 ADD SWAP2 JUMPDEST POP POP POP POP POP SWAP1 POP DUP3 JUMP JUMPDEST PUSH1 0x1 DUP2 DUP1 MLOAD PUSH1 0x20 DUP2 ADD DUP3 ADD DUP1 MLOAD DUP5 DUP3 MSTORE PUSH1 0x20 DUP4 ADD PUSH1 0x20 DUP6 ADD KECCAK256 DUP2 DUP4 MSTORE DUP1 SWAP6 POP POP POP POP POP POP PUSH0 SWAP2 POP SWAP1 POP SLOAD DUP2 JUMP JUMPDEST PUSH0 PUSH1 0x40 MLOAD DUP1 PUSH1 0x40 ADD PUSH1 0x40 MSTORE DUP1 DUP5 DUP2 MSTORE PUSH1 0x20 ADD DUP4 DUP2 MSTORE POP SWAP1 DUP1 PUSH1 0x1 DUP2 SLOAD ADD DUP1 DUP3 SSTORE DUP1 SWAP2 POP POP PUSH1 0x1 SWAP1 SUB SWAP1 PUSH0 MSTORE PUSH1 0x20 PUSH0 KECCAK256 SWAP1 PUSH1 0x2 MUL ADD PUSH0 SWAP1 SWAP2 SWAP1 SWAP2 SWAP1 SWAP2 POP PUSH0 DUP3 ADD MLOAD DUP2 PUSH0 ADD SSTORE PUSH1 0x20 DUP3 ADD MLOAD DUP2 PUSH1 0x1 ADD SWAP1 DUP2 PUSH2 0x1FA SWAP2 SWAP1 PUSH2 0x73A JUMP JUMPDEST POP POP POP DUP2 PUSH1 0x1 DUP3 PUSH1 0x40 MLOAD PUSH2 0x20E SWAP2 SWAP1 PUSH2 0x843 JUMP JUMPDEST SWAP1 DUP2 MSTORE PUSH1 0x20 ADD PUSH1 0x40 MLOAD DUP1 SWAP2 SUB SWAP1 KECCAK256 DUP2 SWAP1 SSTORE POP POP POP JUMP JUMPDEST PUSH0 PUSH1 0x40 MLOAD SWAP1 POP SWAP1 JUMP JUMPDEST PUSH0 DUP1 REVERT JUMPDEST PUSH0 DUP1 REVERT JUMPDEST PUSH0 DUP2 SWAP1 POP SWAP2 SWAP1 POP JUMP JUMPDEST PUSH2 0x247 DUP2 PUSH2 0x235 JUMP JUMPDEST DUP2 EQ PUSH2 0x251 JUMPI PUSH0 DUP1 REVERT JUMPDEST POP JUMP JUMPDEST PUSH0 DUP2 CALLDATALOAD SWAP1 POP PUSH2 0x262 DUP2 PUSH2 0x23E JUMP JUMPDEST SWAP3 SWAP2 POP POP JUMP JUMPDEST PUSH0 PUSH1 0x20 DUP3 DUP5 SUB SLT ISZERO PUSH2 0x27D JUMPI PUSH2 0x27C PUSH2 0x22D JUMP JUMPDEST JUMPDEST PUSH0 PUSH2 0x28A DUP5 DUP3 DUP6 ADD PUSH2 0x254 JUMP JUMPDEST SWAP2 POP POP SWAP3 SWAP2 POP POP JUMP JUMPDEST PUSH2 0x29C DUP2 PUSH2 0x235 JUMP JUMPDEST DUP3 MSTORE POP POP JUMP JUMPDEST PUSH0 DUP2 MLOAD SWAP1 POP SWAP2 SWAP1 POP JUMP JUMPDEST PUSH0 DUP3 DUP3 MSTORE PUSH1 0x20 DUP3 ADD SWAP1 POP SWAP3 SWAP2 POP POP JUMP JUMPDEST PUSH0 JUMPDEST DUP4 DUP2 LT ISZERO PUSH2 0x2D9 JUMPI DUP1 DUP3 ADD MLOAD DUP2 DUP5 ADD MSTORE PUSH1 0x20 DUP2 ADD SWAP1 POP PUSH2 0x2BE JUMP JUMPDEST PUSH0 DUP5 DUP5 ADD MSTORE POP POP POP POP JUMP JUMPDEST PUSH0 PUSH1 0x1F NOT PUSH1 0x1F DUP4 ADD AND SWAP1 POP SWAP2 SWAP1 POP JUMP JUMPDEST PUSH0 PUSH2 0x2FE DUP3 PUSH2 0x2A2 JUMP JUMPDEST PUSH2 0x308 DUP2 DUP6 PUSH2 0x2AC JUMP JUMPDEST SWAP4 POP PUSH2 0x318 DUP2 DUP6 PUSH1 0x20 DUP7 ADD PUSH2 0x2BC JUMP JUMPDEST PUSH2 0x321 DUP2 PUSH2 0x2E4 JUMP JUMPDEST DUP5 ADD SWAP2 POP POP SWAP3 SWAP2 POP POP JUMP JUMPDEST PUSH0 PUSH1 0x40 DUP3 ADD SWAP1 POP PUSH2 0x33F PUSH0 DUP4 ADD DUP6 PUSH2 0x293 JUMP JUMPDEST DUP2 DUP2 SUB PUSH1 0x20 DUP4 ADD MSTORE PUSH2 0x351 DUP2 DUP5 PUSH2 0x2F4 JUMP JUMPDEST SWAP1 POP SWAP4 SWAP3 POP POP POP JUMP JUMPDEST PUSH0 DUP1 REVERT JUMPDEST PUSH0 DUP1 REVERT JUMPDEST PUSH32 0x4E487B7100000000000000000000000000000000000000000000000000000000 PUSH0 MSTORE PUSH1 0x41 PUSH1 0x4 MSTORE PUSH1 0x24 PUSH0 REVERT JUMPDEST PUSH2 0x398 DUP3 PUSH2 0x2E4 JUMP JUMPDEST DUP2 ADD DUP2 DUP2 LT PUSH8 0xFFFFFFFFFFFFFFFF DUP3 GT OR ISZERO PUSH2 0x3B7 JUMPI PUSH2 0x3B6 PUSH2 0x362 JUMP JUMPDEST JUMPDEST DUP1 PUSH1 0x40 MSTORE POP POP POP JUMP JUMPDEST PUSH0 PUSH2 0x3C9 PUSH2 0x224 JUMP JUMPDEST SWAP1 POP PUSH2 0x3D5 DUP3 DUP3 PUSH2 0x38F JUMP JUMPDEST SWAP2 SWAP1 POP JUMP JUMPDEST PUSH0 PUSH8 0xFFFFFFFFFFFFFFFF DUP3 GT ISZERO PUSH2 0x3F4 JUMPI PUSH2 0x3F3 PUSH2 0x362 JUMP JUMPDEST JUMPDEST PUSH2 0x3FD DUP3 PUSH2 0x2E4 JUMP JUMPDEST SWAP1 POP PUSH1 0x20 DUP2 ADD SWAP1 POP SWAP2 SWAP1 POP JUMP JUMPDEST DUP3 DUP2 DUP4 CALLDATACOPY PUSH0 DUP4 DUP4 ADD MSTORE POP POP POP JUMP JUMPDEST PUSH0 PUSH2 0x42A PUSH2 0x425 DUP5 PUSH2 0x3DA JUMP JUMPDEST PUSH2 0x3C0 JUMP JUMPDEST SWAP1 POP DUP3 DUP2 MSTORE PUSH1 0x20 DUP2 ADD DUP5 DUP5 DUP5 ADD GT ISZERO PUSH2 0x446 JUMPI PUSH2 0x445 PUSH2 0x35E JUMP JUMPDEST JUMPDEST PUSH2 0x451 DUP5 DUP3 DUP6 PUSH2 0x40A JUMP JUMPDEST POP SWAP4 SWAP3 POP POP POP JUMP JUMPDEST PUSH0 DUP3 PUSH1 0x1F DUP4 ADD SLT PUSH2 0x46D JUMPI PUSH2 0x46C PUSH2 0x35A JUMP JUMPDEST JUMPDEST DUP2 CALLDATALOAD PUSH2 0x47D DUP5 DUP3 PUSH1 0x20 DUP7 ADD PUSH2 0x418 JUMP JUMPDEST SWAP2 POP POP SWAP3 SWAP2 POP POP JUMP JUMPDEST PUSH0 PUSH1 0x20 DUP3 DUP5 SUB SLT ISZERO PUSH2 0x49B JUMPI PUSH2 0x49A PUSH2 0x22D JUMP JUMPDEST JUMPDEST PUSH0 DUP3 ADD CALLDATALOAD PUSH8 0xFFFFFFFFFFFFFFFF DUP2 GT ISZERO PUSH2 0x4B8 JUMPI PUSH2 0x4B7 PUSH2 0x231 JUMP JUMPDEST JUMPDEST PUSH2 0x4C4 DUP5 DUP3 DUP6 ADD PUSH2 0x459 JUMP JUMPDEST SWAP2 POP POP SWAP3 SWAP2 POP POP JUMP JUMPDEST PUSH0 PUSH1 0x20 DUP3 ADD SWAP1 POP PUSH2 0x4E0 PUSH0 DUP4 ADD DUP5 PUSH2 0x293 JUMP JUMPDEST SWAP3 SWAP2 POP POP JUMP JUMPDEST PUSH0 DUP1 PUSH1 0x40 DUP4 DUP6 SUB SLT ISZERO PUSH2 0x4FC JUMPI PUSH2 0x4FB PUSH2 0x22D JUMP JUMPDEST JUMPDEST PUSH0 PUSH2 0x509 DUP6 DUP3 DUP7 ADD PUSH2 0x254 JUMP JUMPDEST SWAP3 POP POP PUSH1 0x20 DUP4 ADD CALLDATALOAD PUSH8 0xFFFFFFFFFFFFFFFF DUP2 GT ISZERO PUSH2 0x52A JUMPI PUSH2 0x529 PUSH2 0x231 JUMP JUMPDEST JUMPDEST PUSH2 0x536 DUP6 DUP3 DUP7 ADD PUSH2 0x459 JUMP JUMPDEST SWAP2 POP POP SWAP3 POP SWAP3 SWAP1 POP JUMP JUMPDEST PUSH32 0x4E487B7100000000000000000000000000000000000000000000000000000000 PUSH0 MSTORE PUSH1 0x22 PUSH1 0x4 MSTORE PUSH1 0x24 PUSH0 REVERT JUMPDEST PUSH0 PUSH1 0x2 DUP3 DIV SWAP1 POP PUSH1 0x1 DUP3 AND DUP1 PUSH2 0x584 JUMPI PUSH1 0x7F DUP3 AND SWAP2 POP JUMPDEST PUSH1 0x20 DUP3 LT DUP2 SUB PUSH2 0x597 JUMPI PUSH2 0x596 PUSH2 0x540 JUMP JUMPDEST JUMPDEST POP SWAP2 SWAP1 POP JUMP JUMPDEST PUSH0 DUP2 SWAP1 POP DUP2 PUSH0 MSTORE PUSH1 0x20 PUSH0 KECCAK256 SWAP1 POP SWAP2 SWAP1 POP JUMP JUMPDEST PUSH0 PUSH1 0x20 PUSH1 0x1F DUP4 ADD DIV SWAP1 POP SWAP2 SWAP1 POP JUMP JUMPDEST PUSH0 DUP3 DUP3 SHL SWAP1 POP SWAP3 SWAP2 POP POP JUMP JUMPDEST PUSH0 PUSH1 0x8 DUP4 MUL PUSH2 0x5F9 PUSH32 0xFFFFFFFFFFFFFFFFFFFFFFFFFFFFFFFFFFFFFFFFFFFFFFFFFFFFFFFFFFFFFFFF DUP3 PUSH2 0x5BE JUMP JUMPDEST PUSH2 0x603 DUP7 DUP4 PUSH2 0x5BE JUMP JUMPDEST SWAP6 POP DUP1 NOT DUP5 AND SWAP4 POP DUP1 DUP7 AND DUP5 OR SWAP3 POP POP POP SWAP4 SWAP3 POP POP POP JUMP JUMPDEST PUSH0 DUP2 SWAP1 POP SWAP2 SWAP1 POP JUMP JUMPDEST PUSH0 PUSH2 0x63E PUSH2 0x639 PUSH2 0x634 DUP5 PUSH2 0x235 JUMP JUMPDEST PUSH2 0x61B JUMP JUMPDEST PUSH2 0x235 JUMP JUMPDEST SWAP1 POP SWAP2 SWAP1 POP JUMP JUMPDEST PUSH0 DUP2 SWAP1 POP SWAP2 SWAP1 POP JUMP JUMPDEST PUSH2 0x657 DUP4 PUSH2 0x624 JUMP JUMPDEST PUSH2 0x66B PUSH2 0x663 DUP3 PUSH2 0x645 JUMP JUMPDEST DUP5 DUP5 SLOAD PUSH2 0x5CA JUMP JUMPDEST DUP3 SSTORE POP POP POP POP JUMP JUMPDEST PUSH0 SWAP1 JUMP JUMPDEST PUSH2 0x67F PUSH2 0x673 JUMP JUMPDEST PUSH2 0x68A DUP2 DUP5 DUP5 PUSH2 0x64E JUMP JUMPDEST POP POP POP JUMP JUMPDEST JUMPDEST DUP2 DUP2 LT ISZERO PUSH2 0x6AD JUMPI PUSH2 0x6A2 PUSH0 DUP3 PUSH2 0x677 JUMP JUMPDEST PUSH1 0x1 DUP2 ADD SWAP1 POP PUSH2 0x690 JUMP JUMPDEST POP POP JUMP JUMPDEST PUSH1 0x1F DUP3 GT ISZERO PUSH2 0x6F2 JUMPI PUSH2 0x6C3 DUP2 PUSH2 0x59D JUMP JUMPDEST PUSH2 0x6CC DUP5 PUSH2 0x5AF JUMP JUMPDEST DUP2 ADD PUSH1 0x20 DUP6 LT ISZERO PUSH2 0x6DB JUMPI DUP2 SWAP1 POP JUMPDEST PUSH2 0x6EF PUSH2 0x6E7 DUP6 PUSH2 0x5AF JUMP JUMPDEST DUP4 ADD DUP3 PUSH2 0x68F JUMP JUMPDEST POP POP JUMPDEST POP POP POP JUMP JUMPDEST PUSH0 DUP3 DUP3 SHR SWAP1 POP SWAP3 SWAP2 POP POP JUMP JUMPDEST PUSH0 PUSH2 0x712 PUSH0 NOT DUP5 PUSH1 0x8 MUL PUSH2 0x6F7 JUMP JUMPDEST NOT DUP1 DUP4 AND SWAP2 POP POP SWAP3 SWAP2 POP POP JUMP JUMPDEST PUSH0 PUSH2 0x72A DUP4 DUP4 PUSH2 0x703 JUMP JUMPDEST SWAP2 POP DUP3 PUSH1 0x2 MUL DUP3 OR SWAP1 POP SWAP3 SWAP2 POP POP JUMP JUMPDEST PUSH2 0x743 DUP3 PUSH2 0x2A2 JUMP JUMPDEST PUSH8 0xFFFFFFFFFFFFFFFF DUP2 GT ISZERO PUSH2 0x75C JUMPI PUSH2 0x75B PUSH2 0x362 JUMP JUMPDEST JUMPDEST PUSH2 0x766 DUP3 SLOAD PUSH2 0x56D JUMP JUMPDEST PUSH2 0x771 DUP3 DUP3 DUP6 PUSH2 0x6B1 JUMP JUMPDEST PUSH0 PUSH1 0x20 SWAP1 POP PUSH1 0x1F DUP4 GT PUSH1 0x1 DUP2 EQ PUSH2 0x7A2 JUMPI PUSH0 DUP5 ISZERO PUSH2 0x790 JUMPI DUP3 DUP8 ADD MLOAD SWAP1 POP JUMPDEST PUSH2 0x79A DUP6 DUP3 PUSH2 0x71F JUMP JUMPDEST DUP7 SSTORE POP PUSH2 0x801 JUMP JUMPDEST PUSH1 0x1F NOT DUP5 AND PUSH2 0x7B0 DUP7 PUSH2 0x59D JUMP JUMPDEST PUSH0 JUMPDEST DUP3 DUP2 LT ISZERO PUSH2 0x7D7 JUMPI DUP5 DUP10 ADD MLOAD DUP3 SSTORE PUSH1 0x1 DUP3 ADD SWAP2 POP PUSH1 0x20 DUP6 ADD SWAP5 POP PUSH1 0x20 DUP2 ADD SWAP1 POP PUSH2 0x7B2 JUMP JUMPDEST DUP7 DUP4 LT ISZERO PUSH2 0x7F4 JUMPI DUP5 DUP10 ADD MLOAD PUSH2 0x7F0 PUSH1 0x1F DUP10 AND DUP3 PUSH2 0x703 JUMP JUMPDEST DUP4 SSTORE POP JUMPDEST PUSH1 0x1 PUSH1 0x2 DUP9 MUL ADD DUP9 SSTORE POP POP POP JUMPDEST POP POP POP POP POP POP JUMP JUMPDEST PUSH0 DUP2 SWAP1 POP SWAP3 SWAP2 POP POP JUMP JUMPDEST PUSH0 PUSH2 0x81D DUP3 PUSH2 0x2A2 JUMP JUMPDEST PUSH2 0x827 DUP2 DUP6 PUSH2 0x809 JUMP JUMPDEST SWAP4 POP PUSH2 0x837 DUP2 DUP6 PUSH1 0x20 DUP7 ADD PUSH2 0x2BC JUMP JUMPDEST DUP1 DUP5 ADD SWAP2 POP POP SWAP3 SWAP2 POP POP JUMP JUMPDEST PUSH0 PUSH2 0x84E DUP3 DUP5 PUSH2 0x813 JUMP JUMPDEST SWAP2 POP DUP2 SWAP1 POP SWAP3 SWAP2 POP POP JUMP INVALID LOG2 PUSH5 0x6970667358 0x22 SLT KECCAK256 CODECOPY DELEGATECALL 0xCD INVALID 0xDE 0x2D PUSH1 0x70 XOR 0xB7 0xA8 0xCB 0xE6 SWAP12 0xCA POP 0xF6 PUSH13 0xA7BB40F437FE1FDBE2F5F3745D 0xC9 PUSH5 0x736F6C6343 STOP ADDMOD AND STOP CALLER LOG2 PUSH5 0x6970667358 0x22 SLT KECCAK256 SWAP10 PUSH6 0xC66ED3D5AEE0 DUP9 SWAP4 SUB 0xBE 0xE4 DUP12 RETURNDATACOPY CREATE2 SWAP7 PUSH10 0x609980C8B479E4D59B41 0xCE SWAP3 0xD8 EXP PUSH5 0x736F6C6343 STOP ADDMOD AND STOP CALLER "
				},
				"gasEstimates": {
					"creation": {
						"codeDepositCost": "833000",
						"executionCost": "868",
						"totalCost": "833868"
					},
					"external": {
						"addPersonToSimpStore(uint256,uint256,string)": "infinite",
						"createSimpleStorage()": "infinite",
						"getPersons(uint256,string)": "infinite",
						"simpleStorageArray(uint256)": "infinite"
					}
				},
				"methodIdentifiers": {
					"addPersonToSimpStore(uint256,uint256,string)": "6768a7e9",
					"createSimpleStorage()": "40d66b3b",
					"getPersons(uint256,string)": "4dcf94f3",
					"simpleStorageArray(uint256)": "64591bf1"
				}
			},
			"storageLayout": {
				"storage": [
					{
						"astId": 45,
						"contract": "contracts/StorageFactory.sol:StorageFactory",
						"label": "simpleStorageArray",
						"offset": 0,
						"slot": "0",
						"type": "t_array(t_contract(SimpleStorage)38)dyn_storage"
					}
				],
				"types": {
					"t_array(t_contract(SimpleStorage)38)dyn_storage": {
						"base": "t_contract(SimpleStorage)38",
						"encoding": "dynamic_array",
						"label": "contract SimpleStorage[]",
						"numberOfBytes": "32"
					},
					"t_contract(SimpleStorage)38": {
						"encoding": "inplace",
						"label": "contract SimpleStorage",
						"numberOfBytes": "20"
					}
				}
			},
			"userdoc": {
				"kind": "user",
				"methods": {},
				"version": 1
			}
		}
	}
}